{"contracts/IronShieldExecutor.sol":{"IronShieldExecutor":{"abi":[{"inputs":[{"internalType":"address","name":"_aavePool","type":"address"},{"internalType":"address","name":"_weth","type":"address"},{"internalType":"uint256","name":"_minProfitWei","type":"uint256"}],"stateMutability":"nonpayable","type":"constructor"},{"inputs":[],"name":"ContractPaused","type":"error"},{"inputs":[{"internalType":"uint256","name":"expected","type":"uint256"},{"internalType":"uint256","name":"actual","type":"uint256"}],"name":"InsufficientProfit","type":"error"},{"inputs":[],"name":"InvalidSwapTarget","type":"error"},{"inputs":[{"internalType":"uint8","name":"stepIndex","type":"uint8"}],"name":"SwapFailed","type":"error"},{"inputs":[{"internalType":"address","name":"token","type":"address"}],"name":"TokenIsBlacklisted","type":"error"},{"inputs":[],"name":"Unauthorized","type":"error"},{"anonymous":false,"inputs":[{"indexed":true,"internalType":"address","name":"token","type":"address"},{"indexed":false,"internalType":"uint256","name":"loanAmount","type":"uint256"},{"indexed":false,"internalType":"uint256","name":"profit","type":"uint256"},{"indexed":false,"internalType":"uint256","name":"gasUsed","type":"uint256"},{"indexed":false,"internalType":"uint256","name":"timestamp","type":"uint256"}],"name":"ArbitrageExecuted","type":"event"},{"anonymous":false,"inputs":[{"indexed":false,"internalType":"bool","name":"paused","type":"bool"}],"name":"EmergencyPause","type":"event"},{"anonymous":false,"inputs":[{"indexed":false,"internalType":"uint256","name":"oldValue","type":"uint256"},{"indexed":false,"internalType":"uint256","name":"newValue","type":"uint256"}],"name":"MinProfitUpdated","type":"event"},{"anonymous":false,"inputs":[{"indexed":true,"internalType":"address","name":"to","type":"address"},{"indexed":false,"internalType":"uint256","name":"amount","type":"uint256"}],"name":"ProfitWithdrawn","type":"event"},{"anonymous":false,"inputs":[{"indexed":true,"internalType":"address","name":"token","type":"address"},{"indexed":false,"internalType":"string","name":"reason","type":"string"}],"name":"TokenBlacklisted","type":"event"},{"inputs":[],"name":"AERODROME_ROUTER","outputs":[{"internalType":"address","name":"","type":"address"}],"stateMutability":"view","type":"function"},{"inputs":[],"name":"UNISWAP_V3_ROUTER","outputs":[{"internalType":"address","name":"","type":"address"}],"stateMutability":"view","type":"function"},{"inputs":[],"name":"aavePool","outputs":[{"internalType":"address","name":"","type":"address"}],"stateMutability":"view","type":"function"},{"inputs":[{"internalType":"address","name":"token","type":"address"},{"internalType":"string","name":"reason","type":"string"}],"name":"blacklistToken","outputs":[],"stateMutability":"nonpayable","type":"function"},{"inputs":[{"internalType":"address","name":"","type":"address"}],"name":"blacklisted","outputs":[{"internalType":"bool","name":"","type":"bool"}],"stateMutability":"view","type":"function"},{"inputs":[{"internalType":"address","name":"asset","type":"address"},{"internalType":"uint256","name":"amount","type":"uint256"},{"internalType":"uint256","name":"premium","type":"uint256"},{"internalType":"address","name":"initiator","type":"address"},{"internalType":"bytes","name":"params","type":"bytes"}],"name":"executeOperation","outputs":[{"internalType":"bool","name":"","type":"bool"}],"stateMutability":"nonpayable","type":"function"},{"inputs":[{"internalType":"address","name":"asset","type":"address"},{"internalType":"uint256","name":"amount","type":"uint256"},{"internalType":"bytes","name":"swapData","type":"bytes"}],"name":"initiateArbitrage","outputs":[],"stateMutability":"nonpayable","type":"function"},{"inputs":[],"name":"minProfitWei","outputs":[{"internalType":"uint256","name":"","type":"uint256"}],"stateMutability":"view","type":"function"},{"inputs":[],"name":"owner","outputs":[{"internalType":"address","name":"","type":"address"}],"stateMutability":"view","type":"function"},{"inputs":[],"name":"paused","outputs":[{"internalType":"bool","name":"","type":"bool"}],"stateMutability":"view","type":"function"},{"inputs":[{"internalType":"address","name":"token","type":"address"}],"name":"removeBlacklist","outputs":[],"stateMutability":"nonpayable","type":"function"},{"inputs":[{"internalType":"uint256","name":"_minProfitWei","type":"uint256"}],"name":"setMinProfit","outputs":[],"stateMutability":"nonpayable","type":"function"},{"inputs":[{"internalType":"bool","name":"_paused","type":"bool"}],"name":"setPaused","outputs":[],"stateMutability":"nonpayable","type":"function"},{"inputs":[],"name":"totalExecutions","outputs":[{"internalType":"uint256","name":"","type":"uint256"}],"stateMutability":"view","type":"function"},{"inputs":[],"name":"totalProfit","outputs":[{"internalType":"uint256","name":"","type":"uint256"}],"stateMutability":"view","type":"function"},{"inputs":[],"name":"weth","outputs":[{"internalType":"address","name":"","type":"address"}],"stateMutability":"view","type":"function"},{"inputs":[],"name":"withdrawETH","outputs":[],"stateMutability":"nonpayable","type":"function"},{"inputs":[{"internalType":"address","name":"token","type":"address"},{"internalType":"uint256","name":"amount","type":"uint256"}],"name":"withdrawProfit","outputs":[],"stateMutability":"nonpayable","type":"function"},{"stateMutability":"payable","type":"receive"}],"evm":{"bytecode":{"linkReferences":{},"object":"60e034620000df57601f6200208f38819003918201601f19168301916001600160401b03831184841017620000e357808492606094604052833981010312620000df576200004d81620000f7565b9060406200005e60208301620000f7565b910151913360805260a05260c0525f55604051611f8290816200010d823960805181818161013a015281816101f30152818161039a0152818161051f01528181610716015281816107be0152818161090501526116ae015260a051818181610552015281816106a801528181610b83015261116d015260c05181610a360152f35b5f80fd5b634e487b7160e01b5f52604160045260245ffd5b51906001600160a01b0382168203620000df5756fe608080604052600436101561001c575b50361561001a575f80fd5b005b5f905f3560e01c90816316c38b3c1461165a575080631b11d0ff14610a945780632dba780414610a5a5780633fc8cef3146109ec57806341c64a2f146109a05780634d074e41146108945780635c975abb14610854578063642f7d5e1461081957806378400f1714610775578063860015191461073a5780638da5cb5b146106cc578063a03e4bc31461065e578063bbe5bd00146104ab578063d35c9a071461035c578063db37bab41461030f578063dbac26e9146102a7578063e086e5ec146101c25763eb91e6510361000f57346101bf5760207ffffffffffffffffffffffffffffffffffffffffffffffffffffffffffffffffc3601126101bf57610121611756565b73ffffffffffffffffffffffffffffffffffffffff90817f0000000000000000000000000000000000000000000000000000000000000000163303610195571681526002602052604081207fffffffffffffffffffffffffffffffffffffffffffffffffffffffffffffff00815416905580f35b60046040517f82b42900000000000000000000000000000000000000000000000000000000008152fd5b80fd5b50346101bf57807ffffffffffffffffffffffffffffffffffffffffffffffffffffffffffffffffc3601126101bf577f000000000000000000000000000000000000000000000000000000000000000073ffffffffffffffffffffffffffffffffffffffff8116330361019557818080809347905af16102406118cf565b50156102495780f35b60646040517f08c379a000000000000000000000000000000000000000000000000000000000815260206004820152601560248201527f455448207769746864726177616c206661696c656400000000000000000000006044820152fd5b50346101bf5760207ffffffffffffffffffffffffffffffffffffffffffffffffffffffffffffffffc3601126101bf5760ff604060209273ffffffffffffffffffffffffffffffffffffffff6102fb611756565b168152600284522054166040519015158152f35b50346101bf57807ffffffffffffffffffffffffffffffffffffffffffffffffffffffffffffffffc3601126101bf57602060405173cf77a3ba9a5ca399b7c97c74d54e5b1beb874e438152f35b50346101bf5760407ffffffffffffffffffffffffffffffffffffffffffffffffffffffffffffffffc3601126101bf57610394611756565b602435907f00000000000000000000000000000000000000000000000000000000000000009173ffffffffffffffffffffffffffffffffffffffff9283811693843303610195576040517fa9059cbb00000000000000000000000000000000000000000000000000000000815273ffffffffffffffffffffffffffffffffffffffff929092166004830152602482018390529092602091849160449183918991165af19081156104a0577f016e128b6bdadd9e9068abd0b18db2fc8b27ed3dbced50e4aa6cc0a6934251ab92602092610473575b50604051908152a280f35b61049290833d8511610499575b61048a81836117e4565b810190611832565b505f610468565b503d610480565b6040513d86823e3d90fd5b50346106305760607ffffffffffffffffffffffffffffffffffffffffffffffffffffffffffffffffc360112610630576104e3611756565b67ffffffffffffffff6044358181116106305761050490369060040161179a565b73ffffffffffffffffffffffffffffffffffffffff939193807f00000000000000000000000000000000000000000000000000000000000000001633036101955760ff6001541661063457807f00000000000000000000000000000000000000000000000000000000000000001690813b15610630575f80946105d2604051988996879586947f42b0b77c000000000000000000000000000000000000000000000000000000008652306004870152166024850152602435604485015260a0606485015260a4840191611857565b82608483015203925af18015610625576105ea578280f35b90809250116105f857604052005b7f4e487b71000000000000000000000000000000000000000000000000000000005f52604160045260245ffd5b6040513d5f823e3d90fd5b5f80fd5b60046040517fab35696f000000000000000000000000000000000000000000000000000000008152fd5b34610630575f7ffffffffffffffffffffffffffffffffffffffffffffffffffffffffffffffffc36011261063057602060405173ffffffffffffffffffffffffffffffffffffffff7f0000000000000000000000000000000000000000000000000000000000000000168152f35b34610630575f7ffffffffffffffffffffffffffffffffffffffffffffffffffffffffffffffffc36011261063057602060405173ffffffffffffffffffffffffffffffffffffffff7f0000000000000000000000000000000000000000000000000000000000000000168152f35b34610630575f7ffffffffffffffffffffffffffffffffffffffffffffffffffffffffffffffffc360112610630576020600454604051908152f35b346106305760207ffffffffffffffffffffffffffffffffffffffffffffffffffffffffffffffffc3601126106305760043573ffffffffffffffffffffffffffffffffffffffff7f0000000000000000000000000000000000000000000000000000000000000000163303610195577f369aaa64746f21909173e6b1331c9929562f5d22457e9dead997fec9dfa0b90360405f548151908152836020820152a15f55005b34610630575f7ffffffffffffffffffffffffffffffffffffffffffffffffffffffffffffffffc360112610630576020600354604051908152f35b34610630575f7ffffffffffffffffffffffffffffffffffffffffffffffffffffffffffffffffc36011261063057602060ff600154166040519015158152f35b346106305760407ffffffffffffffffffffffffffffffffffffffffffffffffffffffffffffffffc360112610630576108cb611756565b60243567ffffffffffffffff8111610630576108eb90369060040161179a565b919073ffffffffffffffffffffffffffffffffffffffff807f0000000000000000000000000000000000000000000000000000000000000000163303610195577f43db9c2111cb0986cc19d02ef51e29b11bd963598ea73971592b2708bd20bcf9921692835f52600260205260405f2060017fffffffffffffffffffffffffffffffffffffffffffffffffffffffffffffff0082541617905561099b604051928392602084526020840191611857565b0390a2005b34610630575f7ffffffffffffffffffffffffffffffffffffffffffffffffffffffffffffffffc360112610630576020604051732626664c2603336e57b271c5c0b26f421741e4818152f35b34610630575f7ffffffffffffffffffffffffffffffffffffffffffffffffffffffffffffffffc36011261063057602060405173ffffffffffffffffffffffffffffffffffffffff7f0000000000000000000000000000000000000000000000000000000000000000168152f35b34610630575f7ffffffffffffffffffffffffffffffffffffffffffffffffffffffffffffffffc3601126106305760205f54604051908152f35b346106305760a07ffffffffffffffffffffffffffffffffffffffffffffffffffffffffffffffffc36011261063057610acb611756565b60243560643573ffffffffffffffffffffffffffffffffffffffff81168091036106305760843567ffffffffffffffff811161063057610b0f90369060040161179a565b9092604051927f70a0823100000000000000000000000000000000000000000000000000000000845230600485015260208460248173ffffffffffffffffffffffffffffffffffffffff8a165afa938415610625575f94611626575b5073ffffffffffffffffffffffffffffffffffffffff7f00000000000000000000000000000000000000000000000000000000000000001633036115c857300361156a575a9160208582810103126106305784359467ffffffffffffffff861161063057818101601f878301011215610630578581013590610bec826118fe565b96610bfa60405198896117e4565b828852602088019084830160208560051b83860101011161063057602081840101915b60208560051b8386010101831061141c575050505050505f5b845160ff82161015611122576020611fe08260051b168601015173ffffffffffffffffffffffffffffffffffffffff6020820151165f52600260205260ff60405f20541680156110f7575b6110745760608101518061106e57506024602073ffffffffffffffffffffffffffffffffffffffff8184015116604051928380927f70a082310000000000000000000000000000000000000000000000000000000082523060048301525afa908115610625575f9161103c575b50905b5f9160ff82511680155f14610dc25750610d48925073ffffffffffffffffffffffffffffffffffffffff6020830151169160a073ffffffffffffffffffffffffffffffffffffffff60408301511691015192611d21565b15610d8e5760ff809116908114610d6157600101610c36565b7f4e487b71000000000000000000000000000000000000000000000000000000005f52601160045260245ffd5b60249060ff604051917fd229d4ee000000000000000000000000000000000000000000000000000000008352166004820152fd5b60018103610e1c5750610e17925073ffffffffffffffffffffffffffffffffffffffff6020830151169162ffffff608073ffffffffffffffffffffffffffffffffffffffff6040840151169201511692611b7a565b610d48565b90919060028103610e555750610e17925073ffffffffffffffffffffffffffffffffffffffff60408160208401511692015116906119ca565b600314610e64575b5050610d48565b90915060a073ffffffffffffffffffffffffffffffffffffffff6020830151169101519081518201906040838303126106305760208301519273ffffffffffffffffffffffffffffffffffffffff841684036106305760408101519067ffffffffffffffff82116106305760208401603f8383010112156106305760208282010151916020610ef284611895565b95610f0060405197886117e4565b84875201604084838501010111610630575f5b8381106110245750505060205f91840101528073ffffffffffffffffffffffffffffffffffffffff841614610ffa576040517f095ea7b300000000000000000000000000000000000000000000000000000000815273ffffffffffffffffffffffffffffffffffffffff841660048201526024810194909452602090849060449082905f905af1918215610625575f938493610fdb575b508273ffffffffffffffffffffffffffffffffffffffff60208451940192165af1610fd36118cf565b508780610e5d565b610ff39060203d6020116104995761048a81836117e4565b508a610faa565b60046040517f3e82d32a000000000000000000000000000000000000000000000000000000008152fd5b80604060209284860101015182828901015201610f13565b90506020813d602011611066575b81611057602093836117e4565b81010312610630575188610cee565b3d915061104a565b90610cf1565b73ffffffffffffffffffffffffffffffffffffffff818160206024940151165f5260ff60405f2054165f146110ed5760200151165b73ffffffffffffffffffffffffffffffffffffffff604051917ffdc91979000000000000000000000000000000000000000000000000000000008352166004820152fd5b60400151166110a9565b5073ffffffffffffffffffffffffffffffffffffffff6040820151165f5260ff60405f205416610c81565b508461113060443583611825565b6040517f095ea7b300000000000000000000000000000000000000000000000000000000815273ffffffffffffffffffffffffffffffffffffffff7f0000000000000000000000000000000000000000000000000000000000000000166004820152602481018290529093602082806044810103815f73ffffffffffffffffffffffffffffffffffffffff88165af1918215610625576111d7926113fd575b505a9061184a565b92604051907f70a0823100000000000000000000000000000000000000000000000000000000825230600483015260208260248173ffffffffffffffffffffffffffffffffffffffff87165afa8015610625575f906113c9575b61123b925061184a565b90600354917fffffffffffffffffffffffffffffffffffffffffffffffffffffffffffffffff8314610d615773ffffffffffffffffffffffffffffffffffffffff9460016020940160035561129282600454611825565b600455604051918583528483015260408201524260608201527f635ba3250f563c26a1442217170c38a03b0a7ce671b624cfcbe68e8e9a69e5c8608086841692a26024604051809581937f70a08231000000000000000000000000000000000000000000000000000000008352306004840152165afa918215610625575f92611393575b506113249060443590611825565b61132e8184611825565b61133a5f548092611825565b831061134b57602060405160018152f35b61135a61135f92604495611825565b611825565b90604051917f4e88422a00000000000000000000000000000000000000000000000000000000835260048301526024820152fd5b9091506020813d6020116113c1575b816113af602093836117e4565b81010312610630575190611324611316565b3d91506113a2565b506020823d6020116113f5575b816113e3602093836117e4565b810103126106305761123b9151611231565b3d91506113d6565b6114159060203d6020116104995761048a81836117e4565b50866111cf565b82359067ffffffffffffffff82116106305760c07fffffffffffffffffffffffffffffffffffffffffffffffffffffffffffffffe0838588010189880103011261063057604051918260c081011067ffffffffffffffff60c0850111176105f85760c0830160405260208185880101013560ff811681036106305783526114a96040828689010101611779565b602084015260606114bf8183878a010101611779565b604085015286850182016080818101359286019290925260a001359062ffffff821682036106305784015260c0818588010101359067ffffffffffffffff8211610630578487010101878601603f820112156106305760208101359161152483611895565b9361153260405195866117e4565b83855289880160408585010111610630576020945f868681976040839801838601378301015260a08201528152019301929050610c1d565b60646040517f08c379a000000000000000000000000000000000000000000000000000000000815260206004820152601160248201527f496e76616c696420696e69746961746f720000000000000000000000000000006044820152fd5b60646040517f08c379a000000000000000000000000000000000000000000000000000000000815260206004820152601460248201527f43616c6c6572206e6f74204161766520506f6f6c0000000000000000000000006044820152fd5b9093506020813d602011611652575b81611642602093836117e4565b8101031261063057519286610b6b565b3d9150611635565b346106305760207ffffffffffffffffffffffffffffffffffffffffffffffffffffffffffffffffc36011261063057600435908115158092036106305773ffffffffffffffffffffffffffffffffffffffff7f000000000000000000000000000000000000000000000000000000000000000016330361172e577fb80d1ae5628c2af91424c54c87acfd15016be4bebeef0425b328238702f348316020837fffffffffffffffffffffffffffffffffffffffffffffffffffffffffffffff006001541660ff821617600155604051908152a1005b807f82b429000000000000000000000000000000000000000000000000000000000060049252fd5b6004359073ffffffffffffffffffffffffffffffffffffffff8216820361063057565b359073ffffffffffffffffffffffffffffffffffffffff8216820361063057565b9181601f840112156106305782359167ffffffffffffffff8311610630576020838186019501011161063057565b6080810190811067ffffffffffffffff8211176105f857604052565b90601f7fffffffffffffffffffffffffffffffffffffffffffffffffffffffffffffffe0910116810190811067ffffffffffffffff8211176105f857604052565b91908201809211610d6157565b90816020910312610630575180151581036106305790565b91908203918211610d6157565b601f82602094937fffffffffffffffffffffffffffffffffffffffffffffffffffffffffffffffe093818652868601375f8582860101520116010190565b67ffffffffffffffff81116105f857601f017fffffffffffffffffffffffffffffffffffffffffffffffffffffffffffffffe01660200190565b3d156118f9573d906118e082611895565b916118ee60405193846117e4565b82523d5f602084013e565b606090565b67ffffffffffffffff81116105f85760051b60200190565b8051156119235760200190565b7f4e487b71000000000000000000000000000000000000000000000000000000005f52603260045260245ffd5b60209081818403126106305780519067ffffffffffffffff821161063057019180601f84011215610630578251611986816118fe565b9361199460405195866117e4565b818552838086019260051b820101928311610630578301905b8282106119bb575050505090565b815181529083019083016119ad565b9073ffffffffffffffffffffffffffffffffffffffff8092169060409384517f095ea7b300000000000000000000000000000000000000000000000000000000815273327df1e6de05895d2ab08513aadd9313fe505d869485600483015282602483015260209182816044815f8a5af18015611b7057611b53575b508651966060880188811067ffffffffffffffff8211176105f8578152600288528288019581368837611a7789611916565b5287519460019560011015611923579180949298969593981681870152519687957f38ed173900000000000000000000000000000000000000000000000000000000875260a487019260048801525f602488015260a060448801525180925260c4860194935f905b838210611b395750505050505091815f81819530606483015242608483015203925af19081611b17575b50611b12575f90565b600190565b611b32903d805f833e611b2a81836117e4565b810190611950565b505f611b09565b855181168752899750958201959482019490840190611adf565b611b6990833d85116104995761048a81836117e4565b505f611a45565b88513d5f823e3d90fd5b929173ffffffffffffffffffffffffffffffffffffffff809416916040938451947f095ea7b3000000000000000000000000000000000000000000000000000000008652732626664c2603336e57b271c5c0b26f421741e4819283600488015284602488015260209687816044815f8b5af18015611d1757611cfa575b5081519461010086019386851067ffffffffffffffff8611176105f85788978a958552875284888801931683528387019062ffffff1681528460608801308152608089019242845260a08a019485528260c08b01965f885260e08c01985f8a52519e8f9c7f414bf389000000000000000000000000000000000000000000000000000000008e52511660048d0152511660248b01525162ffffff1660448a0152511660648801525160848701525160a48601525160c4850152511660e4830152815a610104925f91f19182611cd1575b5050611b12575f90565b813d8311611cf3575b611ce481836117e4565b81010312610630575f80611cc7565b503d611cda565b611d1090883d8a116104995761048a81836117e4565b505f611bf7565b83513d5f823e3d90fd5b92908151918215159283611f30575b505073ffffffffffffffffffffffffffffffffffffffff8094169260408051907f095ea7b300000000000000000000000000000000000000000000000000000000825273cf77a3ba9a5ca399b7c97c74d54e5b1beb874e439586600484015283602484015260209283816044815f865af18015611d1757611f13575b5081519582870187811067ffffffffffffffff8211176105f85783999593979694929752600193600187525f5b838110611ed7575085908a5198611def8a6117c8565b895216828801521515888701526060955f6060820152611e0e86611916565b52611e1885611916565b5087519788967fcac88ea900000000000000000000000000000000000000000000000000000000885260a488019360048901525f602489015260a0604489015286518094528260c489019701955f925b858410611e9c57505050505050505091815f81819530606483015242608483015203925af19081611b175750611b12575f90565b8751805183168a52858101518316868b0152818101511515828b01528301518216838a01528b99506080909801979684019692860192611e68565b9280959798938b95979b51611eeb816117c8565b5f81525f838201525f878201525f606082015282828c01015201999593999796949297611dd9565b611f2990843d86116104995761048a81836117e4565b505f611dac565b611f44929350602080918301019101611832565b905f80611d3056fea2646970667358221220db9a0302d367b5c78cfc7b4e50dfd033100dc6d486c9d84f80fee001983c0cb664736f6c63430008180033","opcodes":"PUSH1 0xE0 CALLVALUE PUSH3 0xDF JUMPI PUSH1 0x1F PUSH3 0x208F CODESIZE DUP2 SWAP1 SUB SWAP2 DUP3 ADD PUSH1 0x1F NOT AND DUP4 ADD SWAP2 PUSH1 0x1 PUSH1 0x1 PUSH1 0x40 SHL SUB DUP4 GT DUP5 DUP5 LT OR PUSH3 0xE3 JUMPI DUP1 DUP5 SWAP3 PUSH1 0x60 SWAP5 PUSH1 0x40 MSTORE DUP4 CODECOPY DUP2 ADD SUB SLT PUSH3 0xDF JUMPI PUSH3 0x4D DUP2 PUSH3 0xF7 JUMP JUMPDEST SWAP1 PUSH1 0x40 PUSH3 0x5E PUSH1 0x20 DUP4 ADD PUSH3 0xF7 JUMP JUMPDEST SWAP2 ADD MLOAD SWAP2 CALLER PUSH1 0x80 MSTORE PUSH1 0xA0 MSTORE PUSH1 0xC0 MSTORE PUSH0 SSTORE PUSH1 0x40 MLOAD PUSH2 0x1F82 SWAP1 DUP2 PUSH3 0x10D DUP3 CODECOPY PUSH1 0x80 MLOAD DUP2 DUP2 DUP2 PUSH2 0x13A ADD MSTORE DUP2 DUP2 PUSH2 0x1F3 ADD MSTORE DUP2 DUP2 PUSH2 0x39A ADD MSTORE DUP2 DUP2 PUSH2 0x51F ADD MSTORE DUP2 DUP2 PUSH2 0x716 ADD MSTORE DUP2 DUP2 PUSH2 0x7BE ADD MSTORE DUP2 DUP2 PUSH2 0x905 ADD MSTORE PUSH2 0x16AE ADD MSTORE PUSH1 0xA0 MLOAD DUP2 DUP2 DUP2 PUSH2 0x552 ADD MSTORE DUP2 DUP2 PUSH2 0x6A8 ADD MSTORE DUP2 DUP2 PUSH2 0xB83 ADD MSTORE PUSH2 0x116D ADD MSTORE PUSH1 0xC0 MLOAD DUP2 PUSH2 0xA36 ADD MSTORE RETURN JUMPDEST PUSH0 DUP1 REVERT JUMPDEST PUSH4 0x4E487B71 PUSH1 0xE0 SHL PUSH0 MSTORE PUSH1 0x41 PUSH1 0x4 MSTORE PUSH1 0x24 PUSH0 REVERT JUMPDEST MLOAD SWAP1 PUSH1 0x1 PUSH1 0x1 PUSH1 0xA0 SHL SUB DUP3 AND DUP3 SUB PUSH3 0xDF JUMPI JUMP INVALID PUSH1 0x80 DUP1 PUSH1 0x40 MSTORE PUSH1 0x4 CALLDATASIZE LT ISZERO PUSH2 0x1C JUMPI JUMPDEST POP CALLDATASIZE ISZERO PUSH2 0x1A JUMPI PUSH0 DUP1 REVERT JUMPDEST STOP JUMPDEST PUSH0 SWAP1 PUSH0 CALLDATALOAD PUSH1 0xE0 SHR SWAP1 DUP2 PUSH4 0x16C38B3C EQ PUSH2 0x165A JUMPI POP DUP1 PUSH4 0x1B11D0FF EQ PUSH2 0xA94 JUMPI DUP1 PUSH4 0x2DBA7804 EQ PUSH2 0xA5A JUMPI DUP1 PUSH4 0x3FC8CEF3 EQ PUSH2 0x9EC JUMPI DUP1 PUSH4 0x41C64A2F EQ PUSH2 0x9A0 JUMPI DUP1 PUSH4 0x4D074E41 EQ PUSH2 0x894 JUMPI DUP1 PUSH4 0x5C975ABB EQ PUSH2 0x854 JUMPI DUP1 PUSH4 0x642F7D5E EQ PUSH2 0x819 JUMPI DUP1 PUSH4 0x78400F17 EQ PUSH2 0x775 JUMPI DUP1 PUSH4 0x86001519 EQ PUSH2 0x73A JUMPI DUP1 PUSH4 0x8DA5CB5B EQ PUSH2 0x6CC JUMPI DUP1 PUSH4 0xA03E4BC3 EQ PUSH2 0x65E JUMPI DUP1 PUSH4 0xBBE5BD00 EQ PUSH2 0x4AB JUMPI DUP1 PUSH4 0xD35C9A07 EQ PUSH2 0x35C JUMPI DUP1 PUSH4 0xDB37BAB4 EQ PUSH2 0x30F JUMPI DUP1 PUSH4 0xDBAC26E9 EQ PUSH2 0x2A7 JUMPI DUP1 PUSH4 0xE086E5EC EQ PUSH2 0x1C2 JUMPI PUSH4 0xEB91E651 SUB PUSH2 0xF JUMPI CALLVALUE PUSH2 0x1BF JUMPI PUSH1 0x20 PUSH32 0xFFFFFFFFFFFFFFFFFFFFFFFFFFFFFFFFFFFFFFFFFFFFFFFFFFFFFFFFFFFFFFFC CALLDATASIZE ADD SLT PUSH2 0x1BF JUMPI PUSH2 0x121 PUSH2 0x1756 JUMP JUMPDEST PUSH20 0xFFFFFFFFFFFFFFFFFFFFFFFFFFFFFFFFFFFFFFFF SWAP1 DUP2 PUSH32 0x0 AND CALLER SUB PUSH2 0x195 JUMPI AND DUP2 MSTORE PUSH1 0x2 PUSH1 0x20 MSTORE PUSH1 0x40 DUP2 KECCAK256 PUSH32 0xFFFFFFFFFFFFFFFFFFFFFFFFFFFFFFFFFFFFFFFFFFFFFFFFFFFFFFFFFFFFFF00 DUP2 SLOAD AND SWAP1 SSTORE DUP1 RETURN JUMPDEST PUSH1 0x4 PUSH1 0x40 MLOAD PUSH32 0x82B4290000000000000000000000000000000000000000000000000000000000 DUP2 MSTORE REVERT JUMPDEST DUP1 REVERT JUMPDEST POP CALLVALUE PUSH2 0x1BF JUMPI DUP1 PUSH32 0xFFFFFFFFFFFFFFFFFFFFFFFFFFFFFFFFFFFFFFFFFFFFFFFFFFFFFFFFFFFFFFFC CALLDATASIZE ADD SLT PUSH2 0x1BF JUMPI PUSH32 0x0 PUSH20 0xFFFFFFFFFFFFFFFFFFFFFFFFFFFFFFFFFFFFFFFF DUP2 AND CALLER SUB PUSH2 0x195 JUMPI DUP2 DUP1 DUP1 DUP1 SWAP4 SELFBALANCE SWAP1 GAS CALL PUSH2 0x240 PUSH2 0x18CF JUMP JUMPDEST POP ISZERO PUSH2 0x249 JUMPI DUP1 RETURN JUMPDEST PUSH1 0x64 PUSH1 0x40 MLOAD PUSH32 0x8C379A000000000000000000000000000000000000000000000000000000000 DUP2 MSTORE PUSH1 0x20 PUSH1 0x4 DUP3 ADD MSTORE PUSH1 0x15 PUSH1 0x24 DUP3 ADD MSTORE PUSH32 0x455448207769746864726177616C206661696C65640000000000000000000000 PUSH1 0x44 DUP3 ADD MSTORE REVERT JUMPDEST POP CALLVALUE PUSH2 0x1BF JUMPI PUSH1 0x20 PUSH32 0xFFFFFFFFFFFFFFFFFFFFFFFFFFFFFFFFFFFFFFFFFFFFFFFFFFFFFFFFFFFFFFFC CALLDATASIZE ADD SLT PUSH2 0x1BF JUMPI PUSH1 0xFF PUSH1 0x40 PUSH1 0x20 SWAP3 PUSH20 0xFFFFFFFFFFFFFFFFFFFFFFFFFFFFFFFFFFFFFFFF PUSH2 0x2FB PUSH2 0x1756 JUMP JUMPDEST AND DUP2 MSTORE PUSH1 0x2 DUP5 MSTORE KECCAK256 SLOAD AND PUSH1 0x40 MLOAD SWAP1 ISZERO ISZERO DUP2 MSTORE RETURN JUMPDEST POP CALLVALUE PUSH2 0x1BF JUMPI DUP1 PUSH32 0xFFFFFFFFFFFFFFFFFFFFFFFFFFFFFFFFFFFFFFFFFFFFFFFFFFFFFFFFFFFFFFFC CALLDATASIZE ADD SLT PUSH2 0x1BF JUMPI PUSH1 0x20 PUSH1 0x40 MLOAD PUSH20 0xCF77A3BA9A5CA399B7C97C74D54E5B1BEB874E43 DUP2 MSTORE RETURN JUMPDEST POP CALLVALUE PUSH2 0x1BF JUMPI PUSH1 0x40 PUSH32 0xFFFFFFFFFFFFFFFFFFFFFFFFFFFFFFFFFFFFFFFFFFFFFFFFFFFFFFFFFFFFFFFC CALLDATASIZE ADD SLT PUSH2 0x1BF JUMPI PUSH2 0x394 PUSH2 0x1756 JUMP JUMPDEST PUSH1 0x24 CALLDATALOAD SWAP1 PUSH32 0x0 SWAP2 PUSH20 0xFFFFFFFFFFFFFFFFFFFFFFFFFFFFFFFFFFFFFFFF SWAP3 DUP4 DUP2 AND SWAP4 DUP5 CALLER SUB PUSH2 0x195 JUMPI PUSH1 0x40 MLOAD PUSH32 0xA9059CBB00000000000000000000000000000000000000000000000000000000 DUP2 MSTORE PUSH20 0xFFFFFFFFFFFFFFFFFFFFFFFFFFFFFFFFFFFFFFFF SWAP3 SWAP1 SWAP3 AND PUSH1 0x4 DUP4 ADD MSTORE PUSH1 0x24 DUP3 ADD DUP4 SWAP1 MSTORE SWAP1 SWAP3 PUSH1 0x20 SWAP2 DUP5 SWAP2 PUSH1 0x44 SWAP2 DUP4 SWAP2 DUP10 SWAP2 AND GAS CALL SWAP1 DUP2 ISZERO PUSH2 0x4A0 JUMPI PUSH32 0x16E128B6BDADD9E9068ABD0B18DB2FC8B27ED3DBCED50E4AA6CC0A6934251AB SWAP3 PUSH1 0x20 SWAP3 PUSH2 0x473 JUMPI JUMPDEST POP PUSH1 0x40 MLOAD SWAP1 DUP2 MSTORE LOG2 DUP1 RETURN JUMPDEST PUSH2 0x492 SWAP1 DUP4 RETURNDATASIZE DUP6 GT PUSH2 0x499 JUMPI JUMPDEST PUSH2 0x48A DUP2 DUP4 PUSH2 0x17E4 JUMP JUMPDEST DUP2 ADD SWAP1 PUSH2 0x1832 JUMP JUMPDEST POP PUSH0 PUSH2 0x468 JUMP JUMPDEST POP RETURNDATASIZE PUSH2 0x480 JUMP JUMPDEST PUSH1 0x40 MLOAD RETURNDATASIZE DUP7 DUP3 RETURNDATACOPY RETURNDATASIZE SWAP1 REVERT JUMPDEST POP CALLVALUE PUSH2 0x630 JUMPI PUSH1 0x60 PUSH32 0xFFFFFFFFFFFFFFFFFFFFFFFFFFFFFFFFFFFFFFFFFFFFFFFFFFFFFFFFFFFFFFFC CALLDATASIZE ADD SLT PUSH2 0x630 JUMPI PUSH2 0x4E3 PUSH2 0x1756 JUMP JUMPDEST PUSH8 0xFFFFFFFFFFFFFFFF PUSH1 0x44 CALLDATALOAD DUP2 DUP2 GT PUSH2 0x630 JUMPI PUSH2 0x504 SWAP1 CALLDATASIZE SWAP1 PUSH1 0x4 ADD PUSH2 0x179A JUMP JUMPDEST PUSH20 0xFFFFFFFFFFFFFFFFFFFFFFFFFFFFFFFFFFFFFFFF SWAP4 SWAP2 SWAP4 DUP1 PUSH32 0x0 AND CALLER SUB PUSH2 0x195 JUMPI PUSH1 0xFF PUSH1 0x1 SLOAD AND PUSH2 0x634 JUMPI DUP1 PUSH32 0x0 AND SWAP1 DUP2 EXTCODESIZE ISZERO PUSH2 0x630 JUMPI PUSH0 DUP1 SWAP5 PUSH2 0x5D2 PUSH1 0x40 MLOAD SWAP9 DUP10 SWAP7 DUP8 SWAP6 DUP7 SWAP5 PUSH32 0x42B0B77C00000000000000000000000000000000000000000000000000000000 DUP7 MSTORE ADDRESS PUSH1 0x4 DUP8 ADD MSTORE AND PUSH1 0x24 DUP6 ADD MSTORE PUSH1 0x24 CALLDATALOAD PUSH1 0x44 DUP6 ADD MSTORE PUSH1 0xA0 PUSH1 0x64 DUP6 ADD MSTORE PUSH1 0xA4 DUP5 ADD SWAP2 PUSH2 0x1857 JUMP JUMPDEST DUP3 PUSH1 0x84 DUP4 ADD MSTORE SUB SWAP3 GAS CALL DUP1 ISZERO PUSH2 0x625 JUMPI PUSH2 0x5EA JUMPI DUP3 DUP1 RETURN JUMPDEST SWAP1 DUP1 SWAP3 POP GT PUSH2 0x5F8 JUMPI PUSH1 0x40 MSTORE STOP JUMPDEST PUSH32 0x4E487B7100000000000000000000000000000000000000000000000000000000 PUSH0 MSTORE PUSH1 0x41 PUSH1 0x4 MSTORE PUSH1 0x24 PUSH0 REVERT JUMPDEST PUSH1 0x40 MLOAD RETURNDATASIZE PUSH0 DUP3 RETURNDATACOPY RETURNDATASIZE SWAP1 REVERT JUMPDEST PUSH0 DUP1 REVERT JUMPDEST PUSH1 0x4 PUSH1 0x40 MLOAD PUSH32 0xAB35696F00000000000000000000000000000000000000000000000000000000 DUP2 MSTORE REVERT JUMPDEST CALLVALUE PUSH2 0x630 JUMPI PUSH0 PUSH32 0xFFFFFFFFFFFFFFFFFFFFFFFFFFFFFFFFFFFFFFFFFFFFFFFFFFFFFFFFFFFFFFFC CALLDATASIZE ADD SLT PUSH2 0x630 JUMPI PUSH1 0x20 PUSH1 0x40 MLOAD PUSH20 0xFFFFFFFFFFFFFFFFFFFFFFFFFFFFFFFFFFFFFFFF PUSH32 0x0 AND DUP2 MSTORE RETURN JUMPDEST CALLVALUE PUSH2 0x630 JUMPI PUSH0 PUSH32 0xFFFFFFFFFFFFFFFFFFFFFFFFFFFFFFFFFFFFFFFFFFFFFFFFFFFFFFFFFFFFFFFC CALLDATASIZE ADD SLT PUSH2 0x630 JUMPI PUSH1 0x20 PUSH1 0x40 MLOAD PUSH20 0xFFFFFFFFFFFFFFFFFFFFFFFFFFFFFFFFFFFFFFFF PUSH32 0x0 AND DUP2 MSTORE RETURN JUMPDEST CALLVALUE PUSH2 0x630 JUMPI PUSH0 PUSH32 0xFFFFFFFFFFFFFFFFFFFFFFFFFFFFFFFFFFFFFFFFFFFFFFFFFFFFFFFFFFFFFFFC CALLDATASIZE ADD SLT PUSH2 0x630 JUMPI PUSH1 0x20 PUSH1 0x4 SLOAD PUSH1 0x40 MLOAD SWAP1 DUP2 MSTORE RETURN JUMPDEST CALLVALUE PUSH2 0x630 JUMPI PUSH1 0x20 PUSH32 0xFFFFFFFFFFFFFFFFFFFFFFFFFFFFFFFFFFFFFFFFFFFFFFFFFFFFFFFFFFFFFFFC CALLDATASIZE ADD SLT PUSH2 0x630 JUMPI PUSH1 0x4 CALLDATALOAD PUSH20 0xFFFFFFFFFFFFFFFFFFFFFFFFFFFFFFFFFFFFFFFF PUSH32 0x0 AND CALLER SUB PUSH2 0x195 JUMPI PUSH32 0x369AAA64746F21909173E6B1331C9929562F5D22457E9DEAD997FEC9DFA0B903 PUSH1 0x40 PUSH0 SLOAD DUP2 MLOAD SWAP1 DUP2 MSTORE DUP4 PUSH1 0x20 DUP3 ADD MSTORE LOG1 PUSH0 SSTORE STOP JUMPDEST CALLVALUE PUSH2 0x630 JUMPI PUSH0 PUSH32 0xFFFFFFFFFFFFFFFFFFFFFFFFFFFFFFFFFFFFFFFFFFFFFFFFFFFFFFFFFFFFFFFC CALLDATASIZE ADD SLT PUSH2 0x630 JUMPI PUSH1 0x20 PUSH1 0x3 SLOAD PUSH1 0x40 MLOAD SWAP1 DUP2 MSTORE RETURN JUMPDEST CALLVALUE PUSH2 0x630 JUMPI PUSH0 PUSH32 0xFFFFFFFFFFFFFFFFFFFFFFFFFFFFFFFFFFFFFFFFFFFFFFFFFFFFFFFFFFFFFFFC CALLDATASIZE ADD SLT PUSH2 0x630 JUMPI PUSH1 0x20 PUSH1 0xFF PUSH1 0x1 SLOAD AND PUSH1 0x40 MLOAD SWAP1 ISZERO ISZERO DUP2 MSTORE RETURN JUMPDEST CALLVALUE PUSH2 0x630 JUMPI PUSH1 0x40 PUSH32 0xFFFFFFFFFFFFFFFFFFFFFFFFFFFFFFFFFFFFFFFFFFFFFFFFFFFFFFFFFFFFFFFC CALLDATASIZE ADD SLT PUSH2 0x630 JUMPI PUSH2 0x8CB PUSH2 0x1756 JUMP JUMPDEST PUSH1 0x24 CALLDATALOAD PUSH8 0xFFFFFFFFFFFFFFFF DUP2 GT PUSH2 0x630 JUMPI PUSH2 0x8EB SWAP1 CALLDATASIZE SWAP1 PUSH1 0x4 ADD PUSH2 0x179A JUMP JUMPDEST SWAP2 SWAP1 PUSH20 0xFFFFFFFFFFFFFFFFFFFFFFFFFFFFFFFFFFFFFFFF DUP1 PUSH32 0x0 AND CALLER SUB PUSH2 0x195 JUMPI PUSH32 0x43DB9C2111CB0986CC19D02EF51E29B11BD963598EA73971592B2708BD20BCF9 SWAP3 AND SWAP3 DUP4 PUSH0 MSTORE PUSH1 0x2 PUSH1 0x20 MSTORE PUSH1 0x40 PUSH0 KECCAK256 PUSH1 0x1 PUSH32 0xFFFFFFFFFFFFFFFFFFFFFFFFFFFFFFFFFFFFFFFFFFFFFFFFFFFFFFFFFFFFFF00 DUP3 SLOAD AND OR SWAP1 SSTORE PUSH2 0x99B PUSH1 0x40 MLOAD SWAP3 DUP4 SWAP3 PUSH1 0x20 DUP5 MSTORE PUSH1 0x20 DUP5 ADD SWAP2 PUSH2 0x1857 JUMP JUMPDEST SUB SWAP1 LOG2 STOP JUMPDEST CALLVALUE PUSH2 0x630 JUMPI PUSH0 PUSH32 0xFFFFFFFFFFFFFFFFFFFFFFFFFFFFFFFFFFFFFFFFFFFFFFFFFFFFFFFFFFFFFFFC CALLDATASIZE ADD SLT PUSH2 0x630 JUMPI PUSH1 0x20 PUSH1 0x40 MLOAD PUSH20 0x2626664C2603336E57B271C5C0B26F421741E481 DUP2 MSTORE RETURN JUMPDEST CALLVALUE PUSH2 0x630 JUMPI PUSH0 PUSH32 0xFFFFFFFFFFFFFFFFFFFFFFFFFFFFFFFFFFFFFFFFFFFFFFFFFFFFFFFFFFFFFFFC CALLDATASIZE ADD SLT PUSH2 0x630 JUMPI PUSH1 0x20 PUSH1 0x40 MLOAD PUSH20 0xFFFFFFFFFFFFFFFFFFFFFFFFFFFFFFFFFFFFFFFF PUSH32 0x0 AND DUP2 MSTORE RETURN JUMPDEST CALLVALUE PUSH2 0x630 JUMPI PUSH0 PUSH32 0xFFFFFFFFFFFFFFFFFFFFFFFFFFFFFFFFFFFFFFFFFFFFFFFFFFFFFFFFFFFFFFFC CALLDATASIZE ADD SLT PUSH2 0x630 JUMPI PUSH1 0x20 PUSH0 SLOAD PUSH1 0x40 MLOAD SWAP1 DUP2 MSTORE RETURN JUMPDEST CALLVALUE PUSH2 0x630 JUMPI PUSH1 0xA0 PUSH32 0xFFFFFFFFFFFFFFFFFFFFFFFFFFFFFFFFFFFFFFFFFFFFFFFFFFFFFFFFFFFFFFFC CALLDATASIZE ADD SLT PUSH2 0x630 JUMPI PUSH2 0xACB PUSH2 0x1756 JUMP JUMPDEST PUSH1 0x24 CALLDATALOAD PUSH1 0x64 CALLDATALOAD PUSH20 0xFFFFFFFFFFFFFFFFFFFFFFFFFFFFFFFFFFFFFFFF DUP2 AND DUP1 SWAP2 SUB PUSH2 0x630 JUMPI PUSH1 0x84 CALLDATALOAD PUSH8 0xFFFFFFFFFFFFFFFF DUP2 GT PUSH2 0x630 JUMPI PUSH2 0xB0F SWAP1 CALLDATASIZE SWAP1 PUSH1 0x4 ADD PUSH2 0x179A JUMP JUMPDEST SWAP1 SWAP3 PUSH1 0x40 MLOAD SWAP3 PUSH32 0x70A0823100000000000000000000000000000000000000000000000000000000 DUP5 MSTORE ADDRESS PUSH1 0x4 DUP6 ADD MSTORE PUSH1 0x20 DUP5 PUSH1 0x24 DUP2 PUSH20 0xFFFFFFFFFFFFFFFFFFFFFFFFFFFFFFFFFFFFFFFF DUP11 AND GAS STATICCALL SWAP4 DUP5 ISZERO PUSH2 0x625 JUMPI PUSH0 SWAP5 PUSH2 0x1626 JUMPI JUMPDEST POP PUSH20 0xFFFFFFFFFFFFFFFFFFFFFFFFFFFFFFFFFFFFFFFF PUSH32 0x0 AND CALLER SUB PUSH2 0x15C8 JUMPI ADDRESS SUB PUSH2 0x156A JUMPI GAS SWAP2 PUSH1 0x20 DUP6 DUP3 DUP2 ADD SUB SLT PUSH2 0x630 JUMPI DUP5 CALLDATALOAD SWAP5 PUSH8 0xFFFFFFFFFFFFFFFF DUP7 GT PUSH2 0x630 JUMPI DUP2 DUP2 ADD PUSH1 0x1F DUP8 DUP4 ADD ADD SLT ISZERO PUSH2 0x630 JUMPI DUP6 DUP2 ADD CALLDATALOAD SWAP1 PUSH2 0xBEC DUP3 PUSH2 0x18FE JUMP JUMPDEST SWAP7 PUSH2 0xBFA PUSH1 0x40 MLOAD SWAP9 DUP10 PUSH2 0x17E4 JUMP JUMPDEST DUP3 DUP9 MSTORE PUSH1 0x20 DUP9 ADD SWAP1 DUP5 DUP4 ADD PUSH1 0x20 DUP6 PUSH1 0x5 SHL DUP4 DUP7 ADD ADD ADD GT PUSH2 0x630 JUMPI PUSH1 0x20 DUP2 DUP5 ADD ADD SWAP2 JUMPDEST PUSH1 0x20 DUP6 PUSH1 0x5 SHL DUP4 DUP7 ADD ADD ADD DUP4 LT PUSH2 0x141C JUMPI POP POP POP POP POP POP PUSH0 JUMPDEST DUP5 MLOAD PUSH1 0xFF DUP3 AND LT ISZERO PUSH2 0x1122 JUMPI PUSH1 0x20 PUSH2 0x1FE0 DUP3 PUSH1 0x5 SHL AND DUP7 ADD ADD MLOAD PUSH20 0xFFFFFFFFFFFFFFFFFFFFFFFFFFFFFFFFFFFFFFFF PUSH1 0x20 DUP3 ADD MLOAD AND PUSH0 MSTORE PUSH1 0x2 PUSH1 0x20 MSTORE PUSH1 0xFF PUSH1 0x40 PUSH0 KECCAK256 SLOAD AND DUP1 ISZERO PUSH2 0x10F7 JUMPI JUMPDEST PUSH2 0x1074 JUMPI PUSH1 0x60 DUP2 ADD MLOAD DUP1 PUSH2 0x106E JUMPI POP PUSH1 0x24 PUSH1 0x20 PUSH20 0xFFFFFFFFFFFFFFFFFFFFFFFFFFFFFFFFFFFFFFFF DUP2 DUP5 ADD MLOAD AND PUSH1 0x40 MLOAD SWAP3 DUP4 DUP1 SWAP3 PUSH32 0x70A0823100000000000000000000000000000000000000000000000000000000 DUP3 MSTORE ADDRESS PUSH1 0x4 DUP4 ADD MSTORE GAS STATICCALL SWAP1 DUP2 ISZERO PUSH2 0x625 JUMPI PUSH0 SWAP2 PUSH2 0x103C JUMPI JUMPDEST POP SWAP1 JUMPDEST PUSH0 SWAP2 PUSH1 0xFF DUP3 MLOAD AND DUP1 ISZERO PUSH0 EQ PUSH2 0xDC2 JUMPI POP PUSH2 0xD48 SWAP3 POP PUSH20 0xFFFFFFFFFFFFFFFFFFFFFFFFFFFFFFFFFFFFFFFF PUSH1 0x20 DUP4 ADD MLOAD AND SWAP2 PUSH1 0xA0 PUSH20 0xFFFFFFFFFFFFFFFFFFFFFFFFFFFFFFFFFFFFFFFF PUSH1 0x40 DUP4 ADD MLOAD AND SWAP2 ADD MLOAD SWAP3 PUSH2 0x1D21 JUMP JUMPDEST ISZERO PUSH2 0xD8E JUMPI PUSH1 0xFF DUP1 SWAP2 AND SWAP1 DUP2 EQ PUSH2 0xD61 JUMPI PUSH1 0x1 ADD PUSH2 0xC36 JUMP JUMPDEST PUSH32 0x4E487B7100000000000000000000000000000000000000000000000000000000 PUSH0 MSTORE PUSH1 0x11 PUSH1 0x4 MSTORE PUSH1 0x24 PUSH0 REVERT JUMPDEST PUSH1 0x24 SWAP1 PUSH1 0xFF PUSH1 0x40 MLOAD SWAP2 PUSH32 0xD229D4EE00000000000000000000000000000000000000000000000000000000 DUP4 MSTORE AND PUSH1 0x4 DUP3 ADD MSTORE REVERT JUMPDEST PUSH1 0x1 DUP2 SUB PUSH2 0xE1C JUMPI POP PUSH2 0xE17 SWAP3 POP PUSH20 0xFFFFFFFFFFFFFFFFFFFFFFFFFFFFFFFFFFFFFFFF PUSH1 0x20 DUP4 ADD MLOAD AND SWAP2 PUSH3 0xFFFFFF PUSH1 0x80 PUSH20 0xFFFFFFFFFFFFFFFFFFFFFFFFFFFFFFFFFFFFFFFF PUSH1 0x40 DUP5 ADD MLOAD AND SWAP3 ADD MLOAD AND SWAP3 PUSH2 0x1B7A JUMP JUMPDEST PUSH2 0xD48 JUMP JUMPDEST SWAP1 SWAP2 SWAP1 PUSH1 0x2 DUP2 SUB PUSH2 0xE55 JUMPI POP PUSH2 0xE17 SWAP3 POP PUSH20 0xFFFFFFFFFFFFFFFFFFFFFFFFFFFFFFFFFFFFFFFF PUSH1 0x40 DUP2 PUSH1 0x20 DUP5 ADD MLOAD AND SWAP3 ADD MLOAD AND SWAP1 PUSH2 0x19CA JUMP JUMPDEST PUSH1 0x3 EQ PUSH2 0xE64 JUMPI JUMPDEST POP POP PUSH2 0xD48 JUMP JUMPDEST SWAP1 SWAP2 POP PUSH1 0xA0 PUSH20 0xFFFFFFFFFFFFFFFFFFFFFFFFFFFFFFFFFFFFFFFF PUSH1 0x20 DUP4 ADD MLOAD AND SWAP2 ADD MLOAD SWAP1 DUP2 MLOAD DUP3 ADD SWAP1 PUSH1 0x40 DUP4 DUP4 SUB SLT PUSH2 0x630 JUMPI PUSH1 0x20 DUP4 ADD MLOAD SWAP3 PUSH20 0xFFFFFFFFFFFFFFFFFFFFFFFFFFFFFFFFFFFFFFFF DUP5 AND DUP5 SUB PUSH2 0x630 JUMPI PUSH1 0x40 DUP2 ADD MLOAD SWAP1 PUSH8 0xFFFFFFFFFFFFFFFF DUP3 GT PUSH2 0x630 JUMPI PUSH1 0x20 DUP5 ADD PUSH1 0x3F DUP4 DUP4 ADD ADD SLT ISZERO PUSH2 0x630 JUMPI PUSH1 0x20 DUP3 DUP3 ADD ADD MLOAD SWAP2 PUSH1 0x20 PUSH2 0xEF2 DUP5 PUSH2 0x1895 JUMP JUMPDEST SWAP6 PUSH2 0xF00 PUSH1 0x40 MLOAD SWAP8 DUP9 PUSH2 0x17E4 JUMP JUMPDEST DUP5 DUP8 MSTORE ADD PUSH1 0x40 DUP5 DUP4 DUP6 ADD ADD ADD GT PUSH2 0x630 JUMPI PUSH0 JUMPDEST DUP4 DUP2 LT PUSH2 0x1024 JUMPI POP POP POP PUSH1 0x20 PUSH0 SWAP2 DUP5 ADD ADD MSTORE DUP1 PUSH20 0xFFFFFFFFFFFFFFFFFFFFFFFFFFFFFFFFFFFFFFFF DUP5 AND EQ PUSH2 0xFFA JUMPI PUSH1 0x40 MLOAD PUSH32 0x95EA7B300000000000000000000000000000000000000000000000000000000 DUP2 MSTORE PUSH20 0xFFFFFFFFFFFFFFFFFFFFFFFFFFFFFFFFFFFFFFFF DUP5 AND PUSH1 0x4 DUP3 ADD MSTORE PUSH1 0x24 DUP2 ADD SWAP5 SWAP1 SWAP5 MSTORE PUSH1 0x20 SWAP1 DUP5 SWAP1 PUSH1 0x44 SWAP1 DUP3 SWAP1 PUSH0 SWAP1 GAS CALL SWAP2 DUP3 ISZERO PUSH2 0x625 JUMPI PUSH0 SWAP4 DUP5 SWAP4 PUSH2 0xFDB JUMPI JUMPDEST POP DUP3 PUSH20 0xFFFFFFFFFFFFFFFFFFFFFFFFFFFFFFFFFFFFFFFF PUSH1 0x20 DUP5 MLOAD SWAP5 ADD SWAP3 AND GAS CALL PUSH2 0xFD3 PUSH2 0x18CF JUMP JUMPDEST POP DUP8 DUP1 PUSH2 0xE5D JUMP JUMPDEST PUSH2 0xFF3 SWAP1 PUSH1 0x20 RETURNDATASIZE PUSH1 0x20 GT PUSH2 0x499 JUMPI PUSH2 0x48A DUP2 DUP4 PUSH2 0x17E4 JUMP JUMPDEST POP DUP11 PUSH2 0xFAA JUMP JUMPDEST PUSH1 0x4 PUSH1 0x40 MLOAD PUSH32 0x3E82D32A00000000000000000000000000000000000000000000000000000000 DUP2 MSTORE REVERT JUMPDEST DUP1 PUSH1 0x40 PUSH1 0x20 SWAP3 DUP5 DUP7 ADD ADD ADD MLOAD DUP3 DUP3 DUP10 ADD ADD MSTORE ADD PUSH2 0xF13 JUMP JUMPDEST SWAP1 POP PUSH1 0x20 DUP2 RETURNDATASIZE PUSH1 0x20 GT PUSH2 0x1066 JUMPI JUMPDEST DUP2 PUSH2 0x1057 PUSH1 0x20 SWAP4 DUP4 PUSH2 0x17E4 JUMP JUMPDEST DUP2 ADD SUB SLT PUSH2 0x630 JUMPI MLOAD DUP9 PUSH2 0xCEE JUMP JUMPDEST RETURNDATASIZE SWAP2 POP PUSH2 0x104A JUMP JUMPDEST SWAP1 PUSH2 0xCF1 JUMP JUMPDEST PUSH20 0xFFFFFFFFFFFFFFFFFFFFFFFFFFFFFFFFFFFFFFFF DUP2 DUP2 PUSH1 0x20 PUSH1 0x24 SWAP5 ADD MLOAD AND PUSH0 MSTORE PUSH1 0xFF PUSH1 0x40 PUSH0 KECCAK256 SLOAD AND PUSH0 EQ PUSH2 0x10ED JUMPI PUSH1 0x20 ADD MLOAD AND JUMPDEST PUSH20 0xFFFFFFFFFFFFFFFFFFFFFFFFFFFFFFFFFFFFFFFF PUSH1 0x40 MLOAD SWAP2 PUSH32 0xFDC9197900000000000000000000000000000000000000000000000000000000 DUP4 MSTORE AND PUSH1 0x4 DUP3 ADD MSTORE REVERT JUMPDEST PUSH1 0x40 ADD MLOAD AND PUSH2 0x10A9 JUMP JUMPDEST POP PUSH20 0xFFFFFFFFFFFFFFFFFFFFFFFFFFFFFFFFFFFFFFFF PUSH1 0x40 DUP3 ADD MLOAD AND PUSH0 MSTORE PUSH1 0xFF PUSH1 0x40 PUSH0 KECCAK256 SLOAD AND PUSH2 0xC81 JUMP JUMPDEST POP DUP5 PUSH2 0x1130 PUSH1 0x44 CALLDATALOAD DUP4 PUSH2 0x1825 JUMP JUMPDEST PUSH1 0x40 MLOAD PUSH32 0x95EA7B300000000000000000000000000000000000000000000000000000000 DUP2 MSTORE PUSH20 0xFFFFFFFFFFFFFFFFFFFFFFFFFFFFFFFFFFFFFFFF PUSH32 0x0 AND PUSH1 0x4 DUP3 ADD MSTORE PUSH1 0x24 DUP2 ADD DUP3 SWAP1 MSTORE SWAP1 SWAP4 PUSH1 0x20 DUP3 DUP1 PUSH1 0x44 DUP2 ADD SUB DUP2 PUSH0 PUSH20 0xFFFFFFFFFFFFFFFFFFFFFFFFFFFFFFFFFFFFFFFF DUP9 AND GAS CALL SWAP2 DUP3 ISZERO PUSH2 0x625 JUMPI PUSH2 0x11D7 SWAP3 PUSH2 0x13FD JUMPI JUMPDEST POP GAS SWAP1 PUSH2 0x184A JUMP JUMPDEST SWAP3 PUSH1 0x40 MLOAD SWAP1 PUSH32 0x70A0823100000000000000000000000000000000000000000000000000000000 DUP3 MSTORE ADDRESS PUSH1 0x4 DUP4 ADD MSTORE PUSH1 0x20 DUP3 PUSH1 0x24 DUP2 PUSH20 0xFFFFFFFFFFFFFFFFFFFFFFFFFFFFFFFFFFFFFFFF DUP8 AND GAS STATICCALL DUP1 ISZERO PUSH2 0x625 JUMPI PUSH0 SWAP1 PUSH2 0x13C9 JUMPI JUMPDEST PUSH2 0x123B SWAP3 POP PUSH2 0x184A JUMP JUMPDEST SWAP1 PUSH1 0x3 SLOAD SWAP2 PUSH32 0xFFFFFFFFFFFFFFFFFFFFFFFFFFFFFFFFFFFFFFFFFFFFFFFFFFFFFFFFFFFFFFFF DUP4 EQ PUSH2 0xD61 JUMPI PUSH20 0xFFFFFFFFFFFFFFFFFFFFFFFFFFFFFFFFFFFFFFFF SWAP5 PUSH1 0x1 PUSH1 0x20 SWAP5 ADD PUSH1 0x3 SSTORE PUSH2 0x1292 DUP3 PUSH1 0x4 SLOAD PUSH2 0x1825 JUMP JUMPDEST PUSH1 0x4 SSTORE PUSH1 0x40 MLOAD SWAP2 DUP6 DUP4 MSTORE DUP5 DUP4 ADD MSTORE PUSH1 0x40 DUP3 ADD MSTORE TIMESTAMP PUSH1 0x60 DUP3 ADD MSTORE PUSH32 0x635BA3250F563C26A1442217170C38A03B0A7CE671B624CFCBE68E8E9A69E5C8 PUSH1 0x80 DUP7 DUP5 AND SWAP3 LOG2 PUSH1 0x24 PUSH1 0x40 MLOAD DUP1 SWAP6 DUP2 SWAP4 PUSH32 0x70A0823100000000000000000000000000000000000000000000000000000000 DUP4 MSTORE ADDRESS PUSH1 0x4 DUP5 ADD MSTORE AND GAS STATICCALL SWAP2 DUP3 ISZERO PUSH2 0x625 JUMPI PUSH0 SWAP3 PUSH2 0x1393 JUMPI JUMPDEST POP PUSH2 0x1324 SWAP1 PUSH1 0x44 CALLDATALOAD SWAP1 PUSH2 0x1825 JUMP JUMPDEST PUSH2 0x132E DUP2 DUP5 PUSH2 0x1825 JUMP JUMPDEST PUSH2 0x133A PUSH0 SLOAD DUP1 SWAP3 PUSH2 0x1825 JUMP JUMPDEST DUP4 LT PUSH2 0x134B JUMPI PUSH1 0x20 PUSH1 0x40 MLOAD PUSH1 0x1 DUP2 MSTORE RETURN JUMPDEST PUSH2 0x135A PUSH2 0x135F SWAP3 PUSH1 0x44 SWAP6 PUSH2 0x1825 JUMP JUMPDEST PUSH2 0x1825 JUMP JUMPDEST SWAP1 PUSH1 0x40 MLOAD SWAP2 PUSH32 0x4E88422A00000000000000000000000000000000000000000000000000000000 DUP4 MSTORE PUSH1 0x4 DUP4 ADD MSTORE PUSH1 0x24 DUP3 ADD MSTORE REVERT JUMPDEST SWAP1 SWAP2 POP PUSH1 0x20 DUP2 RETURNDATASIZE PUSH1 0x20 GT PUSH2 0x13C1 JUMPI JUMPDEST DUP2 PUSH2 0x13AF PUSH1 0x20 SWAP4 DUP4 PUSH2 0x17E4 JUMP JUMPDEST DUP2 ADD SUB SLT PUSH2 0x630 JUMPI MLOAD SWAP1 PUSH2 0x1324 PUSH2 0x1316 JUMP JUMPDEST RETURNDATASIZE SWAP2 POP PUSH2 0x13A2 JUMP JUMPDEST POP PUSH1 0x20 DUP3 RETURNDATASIZE PUSH1 0x20 GT PUSH2 0x13F5 JUMPI JUMPDEST DUP2 PUSH2 0x13E3 PUSH1 0x20 SWAP4 DUP4 PUSH2 0x17E4 JUMP JUMPDEST DUP2 ADD SUB SLT PUSH2 0x630 JUMPI PUSH2 0x123B SWAP2 MLOAD PUSH2 0x1231 JUMP JUMPDEST RETURNDATASIZE SWAP2 POP PUSH2 0x13D6 JUMP JUMPDEST PUSH2 0x1415 SWAP1 PUSH1 0x20 RETURNDATASIZE PUSH1 0x20 GT PUSH2 0x499 JUMPI PUSH2 0x48A DUP2 DUP4 PUSH2 0x17E4 JUMP JUMPDEST POP DUP7 PUSH2 0x11CF JUMP JUMPDEST DUP3 CALLDATALOAD SWAP1 PUSH8 0xFFFFFFFFFFFFFFFF DUP3 GT PUSH2 0x630 JUMPI PUSH1 0xC0 PUSH32 0xFFFFFFFFFFFFFFFFFFFFFFFFFFFFFFFFFFFFFFFFFFFFFFFFFFFFFFFFFFFFFFE0 DUP4 DUP6 DUP9 ADD ADD DUP10 DUP9 ADD SUB ADD SLT PUSH2 0x630 JUMPI PUSH1 0x40 MLOAD SWAP2 DUP3 PUSH1 0xC0 DUP2 ADD LT PUSH8 0xFFFFFFFFFFFFFFFF PUSH1 0xC0 DUP6 ADD GT OR PUSH2 0x5F8 JUMPI PUSH1 0xC0 DUP4 ADD PUSH1 0x40 MSTORE PUSH1 0x20 DUP2 DUP6 DUP9 ADD ADD ADD CALLDATALOAD PUSH1 0xFF DUP2 AND DUP2 SUB PUSH2 0x630 JUMPI DUP4 MSTORE PUSH2 0x14A9 PUSH1 0x40 DUP3 DUP7 DUP10 ADD ADD ADD PUSH2 0x1779 JUMP JUMPDEST PUSH1 0x20 DUP5 ADD MSTORE PUSH1 0x60 PUSH2 0x14BF DUP2 DUP4 DUP8 DUP11 ADD ADD ADD PUSH2 0x1779 JUMP JUMPDEST PUSH1 0x40 DUP6 ADD MSTORE DUP7 DUP6 ADD DUP3 ADD PUSH1 0x80 DUP2 DUP2 ADD CALLDATALOAD SWAP3 DUP7 ADD SWAP3 SWAP1 SWAP3 MSTORE PUSH1 0xA0 ADD CALLDATALOAD SWAP1 PUSH3 0xFFFFFF DUP3 AND DUP3 SUB PUSH2 0x630 JUMPI DUP5 ADD MSTORE PUSH1 0xC0 DUP2 DUP6 DUP9 ADD ADD ADD CALLDATALOAD SWAP1 PUSH8 0xFFFFFFFFFFFFFFFF DUP3 GT PUSH2 0x630 JUMPI DUP5 DUP8 ADD ADD ADD DUP8 DUP7 ADD PUSH1 0x3F DUP3 ADD SLT ISZERO PUSH2 0x630 JUMPI PUSH1 0x20 DUP2 ADD CALLDATALOAD SWAP2 PUSH2 0x1524 DUP4 PUSH2 0x1895 JUMP JUMPDEST SWAP4 PUSH2 0x1532 PUSH1 0x40 MLOAD SWAP6 DUP7 PUSH2 0x17E4 JUMP JUMPDEST DUP4 DUP6 MSTORE DUP10 DUP9 ADD PUSH1 0x40 DUP6 DUP6 ADD ADD GT PUSH2 0x630 JUMPI PUSH1 0x20 SWAP5 PUSH0 DUP7 DUP7 DUP2 SWAP8 PUSH1 0x40 DUP4 SWAP9 ADD DUP4 DUP7 ADD CALLDATACOPY DUP4 ADD ADD MSTORE PUSH1 0xA0 DUP3 ADD MSTORE DUP2 MSTORE ADD SWAP4 ADD SWAP3 SWAP1 POP PUSH2 0xC1D JUMP JUMPDEST PUSH1 0x64 PUSH1 0x40 MLOAD PUSH32 0x8C379A000000000000000000000000000000000000000000000000000000000 DUP2 MSTORE PUSH1 0x20 PUSH1 0x4 DUP3 ADD MSTORE PUSH1 0x11 PUSH1 0x24 DUP3 ADD MSTORE PUSH32 0x496E76616C696420696E69746961746F72000000000000000000000000000000 PUSH1 0x44 DUP3 ADD MSTORE REVERT JUMPDEST PUSH1 0x64 PUSH1 0x40 MLOAD PUSH32 0x8C379A000000000000000000000000000000000000000000000000000000000 DUP2 MSTORE PUSH1 0x20 PUSH1 0x4 DUP3 ADD MSTORE PUSH1 0x14 PUSH1 0x24 DUP3 ADD MSTORE PUSH32 0x43616C6C6572206E6F74204161766520506F6F6C000000000000000000000000 PUSH1 0x44 DUP3 ADD MSTORE REVERT JUMPDEST SWAP1 SWAP4 POP PUSH1 0x20 DUP2 RETURNDATASIZE PUSH1 0x20 GT PUSH2 0x1652 JUMPI JUMPDEST DUP2 PUSH2 0x1642 PUSH1 0x20 SWAP4 DUP4 PUSH2 0x17E4 JUMP JUMPDEST DUP2 ADD SUB SLT PUSH2 0x630 JUMPI MLOAD SWAP3 DUP7 PUSH2 0xB6B JUMP JUMPDEST RETURNDATASIZE SWAP2 POP PUSH2 0x1635 JUMP JUMPDEST CALLVALUE PUSH2 0x630 JUMPI PUSH1 0x20 PUSH32 0xFFFFFFFFFFFFFFFFFFFFFFFFFFFFFFFFFFFFFFFFFFFFFFFFFFFFFFFFFFFFFFFC CALLDATASIZE ADD SLT PUSH2 0x630 JUMPI PUSH1 0x4 CALLDATALOAD SWAP1 DUP2 ISZERO ISZERO DUP1 SWAP3 SUB PUSH2 0x630 JUMPI PUSH20 0xFFFFFFFFFFFFFFFFFFFFFFFFFFFFFFFFFFFFFFFF PUSH32 0x0 AND CALLER SUB PUSH2 0x172E JUMPI PUSH32 0xB80D1AE5628C2AF91424C54C87ACFD15016BE4BEBEEF0425B328238702F34831 PUSH1 0x20 DUP4 PUSH32 0xFFFFFFFFFFFFFFFFFFFFFFFFFFFFFFFFFFFFFFFFFFFFFFFFFFFFFFFFFFFFFF00 PUSH1 0x1 SLOAD AND PUSH1 0xFF DUP3 AND OR PUSH1 0x1 SSTORE PUSH1 0x40 MLOAD SWAP1 DUP2 MSTORE LOG1 STOP JUMPDEST DUP1 PUSH32 0x82B4290000000000000000000000000000000000000000000000000000000000 PUSH1 0x4 SWAP3 MSTORE REVERT JUMPDEST PUSH1 0x4 CALLDATALOAD SWAP1 PUSH20 0xFFFFFFFFFFFFFFFFFFFFFFFFFFFFFFFFFFFFFFFF DUP3 AND DUP3 SUB PUSH2 0x630 JUMPI JUMP JUMPDEST CALLDATALOAD SWAP1 PUSH20 0xFFFFFFFFFFFFFFFFFFFFFFFFFFFFFFFFFFFFFFFF DUP3 AND DUP3 SUB PUSH2 0x630 JUMPI JUMP JUMPDEST SWAP2 DUP2 PUSH1 0x1F DUP5 ADD SLT ISZERO PUSH2 0x630 JUMPI DUP3 CALLDATALOAD SWAP2 PUSH8 0xFFFFFFFFFFFFFFFF DUP4 GT PUSH2 0x630 JUMPI PUSH1 0x20 DUP4 DUP2 DUP7 ADD SWAP6 ADD ADD GT PUSH2 0x630 JUMPI JUMP JUMPDEST PUSH1 0x80 DUP2 ADD SWAP1 DUP2 LT PUSH8 0xFFFFFFFFFFFFFFFF DUP3 GT OR PUSH2 0x5F8 JUMPI PUSH1 0x40 MSTORE JUMP JUMPDEST SWAP1 PUSH1 0x1F PUSH32 0xFFFFFFFFFFFFFFFFFFFFFFFFFFFFFFFFFFFFFFFFFFFFFFFFFFFFFFFFFFFFFFE0 SWAP2 ADD AND DUP2 ADD SWAP1 DUP2 LT PUSH8 0xFFFFFFFFFFFFFFFF DUP3 GT OR PUSH2 0x5F8 JUMPI PUSH1 0x40 MSTORE JUMP JUMPDEST SWAP2 SWAP1 DUP3 ADD DUP1 SWAP3 GT PUSH2 0xD61 JUMPI JUMP JUMPDEST SWAP1 DUP2 PUSH1 0x20 SWAP2 SUB SLT PUSH2 0x630 JUMPI MLOAD DUP1 ISZERO ISZERO DUP2 SUB PUSH2 0x630 JUMPI SWAP1 JUMP JUMPDEST SWAP2 SWAP1 DUP3 SUB SWAP2 DUP3 GT PUSH2 0xD61 JUMPI JUMP JUMPDEST PUSH1 0x1F DUP3 PUSH1 0x20 SWAP5 SWAP4 PUSH32 0xFFFFFFFFFFFFFFFFFFFFFFFFFFFFFFFFFFFFFFFFFFFFFFFFFFFFFFFFFFFFFFE0 SWAP4 DUP2 DUP7 MSTORE DUP7 DUP7 ADD CALLDATACOPY PUSH0 DUP6 DUP3 DUP7 ADD ADD MSTORE ADD AND ADD ADD SWAP1 JUMP JUMPDEST PUSH8 0xFFFFFFFFFFFFFFFF DUP2 GT PUSH2 0x5F8 JUMPI PUSH1 0x1F ADD PUSH32 0xFFFFFFFFFFFFFFFFFFFFFFFFFFFFFFFFFFFFFFFFFFFFFFFFFFFFFFFFFFFFFFE0 AND PUSH1 0x20 ADD SWAP1 JUMP JUMPDEST RETURNDATASIZE ISZERO PUSH2 0x18F9 JUMPI RETURNDATASIZE SWAP1 PUSH2 0x18E0 DUP3 PUSH2 0x1895 JUMP JUMPDEST SWAP2 PUSH2 0x18EE PUSH1 0x40 MLOAD SWAP4 DUP5 PUSH2 0x17E4 JUMP JUMPDEST DUP3 MSTORE RETURNDATASIZE PUSH0 PUSH1 0x20 DUP5 ADD RETURNDATACOPY JUMP JUMPDEST PUSH1 0x60 SWAP1 JUMP JUMPDEST PUSH8 0xFFFFFFFFFFFFFFFF DUP2 GT PUSH2 0x5F8 JUMPI PUSH1 0x5 SHL PUSH1 0x20 ADD SWAP1 JUMP JUMPDEST DUP1 MLOAD ISZERO PUSH2 0x1923 JUMPI PUSH1 0x20 ADD SWAP1 JUMP JUMPDEST PUSH32 0x4E487B7100000000000000000000000000000000000000000000000000000000 PUSH0 MSTORE PUSH1 0x32 PUSH1 0x4 MSTORE PUSH1 0x24 PUSH0 REVERT JUMPDEST PUSH1 0x20 SWAP1 DUP2 DUP2 DUP5 SUB SLT PUSH2 0x630 JUMPI DUP1 MLOAD SWAP1 PUSH8 0xFFFFFFFFFFFFFFFF DUP3 GT PUSH2 0x630 JUMPI ADD SWAP2 DUP1 PUSH1 0x1F DUP5 ADD SLT ISZERO PUSH2 0x630 JUMPI DUP3 MLOAD PUSH2 0x1986 DUP2 PUSH2 0x18FE JUMP JUMPDEST SWAP4 PUSH2 0x1994 PUSH1 0x40 MLOAD SWAP6 DUP7 PUSH2 0x17E4 JUMP JUMPDEST DUP2 DUP6 MSTORE DUP4 DUP1 DUP7 ADD SWAP3 PUSH1 0x5 SHL DUP3 ADD ADD SWAP3 DUP4 GT PUSH2 0x630 JUMPI DUP4 ADD SWAP1 JUMPDEST DUP3 DUP3 LT PUSH2 0x19BB JUMPI POP POP POP POP SWAP1 JUMP JUMPDEST DUP2 MLOAD DUP2 MSTORE SWAP1 DUP4 ADD SWAP1 DUP4 ADD PUSH2 0x19AD JUMP JUMPDEST SWAP1 PUSH20 0xFFFFFFFFFFFFFFFFFFFFFFFFFFFFFFFFFFFFFFFF DUP1 SWAP3 AND SWAP1 PUSH1 0x40 SWAP4 DUP5 MLOAD PUSH32 0x95EA7B300000000000000000000000000000000000000000000000000000000 DUP2 MSTORE PUSH20 0x327DF1E6DE05895D2AB08513AADD9313FE505D86 SWAP5 DUP6 PUSH1 0x4 DUP4 ADD MSTORE DUP3 PUSH1 0x24 DUP4 ADD MSTORE PUSH1 0x20 SWAP2 DUP3 DUP2 PUSH1 0x44 DUP2 PUSH0 DUP11 GAS CALL DUP1 ISZERO PUSH2 0x1B70 JUMPI PUSH2 0x1B53 JUMPI JUMPDEST POP DUP7 MLOAD SWAP7 PUSH1 0x60 DUP9 ADD DUP9 DUP2 LT PUSH8 0xFFFFFFFFFFFFFFFF DUP3 GT OR PUSH2 0x5F8 JUMPI DUP2 MSTORE PUSH1 0x2 DUP9 MSTORE DUP3 DUP9 ADD SWAP6 DUP2 CALLDATASIZE DUP9 CALLDATACOPY PUSH2 0x1A77 DUP10 PUSH2 0x1916 JUMP JUMPDEST MSTORE DUP8 MLOAD SWAP5 PUSH1 0x1 SWAP6 PUSH1 0x1 LT ISZERO PUSH2 0x1923 JUMPI SWAP2 DUP1 SWAP5 SWAP3 SWAP9 SWAP7 SWAP6 SWAP4 SWAP9 AND DUP2 DUP8 ADD MSTORE MLOAD SWAP7 DUP8 SWAP6 PUSH32 0x38ED173900000000000000000000000000000000000000000000000000000000 DUP8 MSTORE PUSH1 0xA4 DUP8 ADD SWAP3 PUSH1 0x4 DUP9 ADD MSTORE PUSH0 PUSH1 0x24 DUP9 ADD MSTORE PUSH1 0xA0 PUSH1 0x44 DUP9 ADD MSTORE MLOAD DUP1 SWAP3 MSTORE PUSH1 0xC4 DUP7 ADD SWAP5 SWAP4 PUSH0 SWAP1 JUMPDEST DUP4 DUP3 LT PUSH2 0x1B39 JUMPI POP POP POP POP POP POP SWAP2 DUP2 PUSH0 DUP2 DUP2 SWAP6 ADDRESS PUSH1 0x64 DUP4 ADD MSTORE TIMESTAMP PUSH1 0x84 DUP4 ADD MSTORE SUB SWAP3 GAS CALL SWAP1 DUP2 PUSH2 0x1B17 JUMPI JUMPDEST POP PUSH2 0x1B12 JUMPI PUSH0 SWAP1 JUMP JUMPDEST PUSH1 0x1 SWAP1 JUMP JUMPDEST PUSH2 0x1B32 SWAP1 RETURNDATASIZE DUP1 PUSH0 DUP4 RETURNDATACOPY PUSH2 0x1B2A DUP2 DUP4 PUSH2 0x17E4 JUMP JUMPDEST DUP2 ADD SWAP1 PUSH2 0x1950 JUMP JUMPDEST POP PUSH0 PUSH2 0x1B09 JUMP JUMPDEST DUP6 MLOAD DUP2 AND DUP8 MSTORE DUP10 SWAP8 POP SWAP6 DUP3 ADD SWAP6 SWAP5 DUP3 ADD SWAP5 SWAP1 DUP5 ADD SWAP1 PUSH2 0x1ADF JUMP JUMPDEST PUSH2 0x1B69 SWAP1 DUP4 RETURNDATASIZE DUP6 GT PUSH2 0x499 JUMPI PUSH2 0x48A DUP2 DUP4 PUSH2 0x17E4 JUMP JUMPDEST POP PUSH0 PUSH2 0x1A45 JUMP JUMPDEST DUP9 MLOAD RETURNDATASIZE PUSH0 DUP3 RETURNDATACOPY RETURNDATASIZE SWAP1 REVERT JUMPDEST SWAP3 SWAP2 PUSH20 0xFFFFFFFFFFFFFFFFFFFFFFFFFFFFFFFFFFFFFFFF DUP1 SWAP5 AND SWAP2 PUSH1 0x40 SWAP4 DUP5 MLOAD SWAP5 PUSH32 0x95EA7B300000000000000000000000000000000000000000000000000000000 DUP7 MSTORE PUSH20 0x2626664C2603336E57B271C5C0B26F421741E481 SWAP3 DUP4 PUSH1 0x4 DUP9 ADD MSTORE DUP5 PUSH1 0x24 DUP9 ADD MSTORE PUSH1 0x20 SWAP7 DUP8 DUP2 PUSH1 0x44 DUP2 PUSH0 DUP12 GAS CALL DUP1 ISZERO PUSH2 0x1D17 JUMPI PUSH2 0x1CFA JUMPI JUMPDEST POP DUP2 MLOAD SWAP5 PUSH2 0x100 DUP7 ADD SWAP4 DUP7 DUP6 LT PUSH8 0xFFFFFFFFFFFFFFFF DUP7 GT OR PUSH2 0x5F8 JUMPI DUP9 SWAP8 DUP11 SWAP6 DUP6 MSTORE DUP8 MSTORE DUP5 DUP9 DUP9 ADD SWAP4 AND DUP4 MSTORE DUP4 DUP8 ADD SWAP1 PUSH3 0xFFFFFF AND DUP2 MSTORE DUP5 PUSH1 0x60 DUP9 ADD ADDRESS DUP2 MSTORE PUSH1 0x80 DUP10 ADD SWAP3 TIMESTAMP DUP5 MSTORE PUSH1 0xA0 DUP11 ADD SWAP5 DUP6 MSTORE DUP3 PUSH1 0xC0 DUP12 ADD SWAP7 PUSH0 DUP9 MSTORE PUSH1 0xE0 DUP13 ADD SWAP9 PUSH0 DUP11 MSTORE MLOAD SWAP15 DUP16 SWAP13 PUSH32 0x414BF38900000000000000000000000000000000000000000000000000000000 DUP15 MSTORE MLOAD AND PUSH1 0x4 DUP14 ADD MSTORE MLOAD AND PUSH1 0x24 DUP12 ADD MSTORE MLOAD PUSH3 0xFFFFFF AND PUSH1 0x44 DUP11 ADD MSTORE MLOAD AND PUSH1 0x64 DUP9 ADD MSTORE MLOAD PUSH1 0x84 DUP8 ADD MSTORE MLOAD PUSH1 0xA4 DUP7 ADD MSTORE MLOAD PUSH1 0xC4 DUP6 ADD MSTORE MLOAD AND PUSH1 0xE4 DUP4 ADD MSTORE DUP2 GAS PUSH2 0x104 SWAP3 PUSH0 SWAP2 CALL SWAP2 DUP3 PUSH2 0x1CD1 JUMPI JUMPDEST POP POP PUSH2 0x1B12 JUMPI PUSH0 SWAP1 JUMP JUMPDEST DUP2 RETURNDATASIZE DUP4 GT PUSH2 0x1CF3 JUMPI JUMPDEST PUSH2 0x1CE4 DUP2 DUP4 PUSH2 0x17E4 JUMP JUMPDEST DUP2 ADD SUB SLT PUSH2 0x630 JUMPI PUSH0 DUP1 PUSH2 0x1CC7 JUMP JUMPDEST POP RETURNDATASIZE PUSH2 0x1CDA JUMP JUMPDEST PUSH2 0x1D10 SWAP1 DUP9 RETURNDATASIZE DUP11 GT PUSH2 0x499 JUMPI PUSH2 0x48A DUP2 DUP4 PUSH2 0x17E4 JUMP JUMPDEST POP PUSH0 PUSH2 0x1BF7 JUMP JUMPDEST DUP4 MLOAD RETURNDATASIZE PUSH0 DUP3 RETURNDATACOPY RETURNDATASIZE SWAP1 REVERT JUMPDEST SWAP3 SWAP1 DUP2 MLOAD SWAP2 DUP3 ISZERO ISZERO SWAP3 DUP4 PUSH2 0x1F30 JUMPI JUMPDEST POP POP PUSH20 0xFFFFFFFFFFFFFFFFFFFFFFFFFFFFFFFFFFFFFFFF DUP1 SWAP5 AND SWAP3 PUSH1 0x40 DUP1 MLOAD SWAP1 PUSH32 0x95EA7B300000000000000000000000000000000000000000000000000000000 DUP3 MSTORE PUSH20 0xCF77A3BA9A5CA399B7C97C74D54E5B1BEB874E43 SWAP6 DUP7 PUSH1 0x4 DUP5 ADD MSTORE DUP4 PUSH1 0x24 DUP5 ADD MSTORE PUSH1 0x20 SWAP3 DUP4 DUP2 PUSH1 0x44 DUP2 PUSH0 DUP7 GAS CALL DUP1 ISZERO PUSH2 0x1D17 JUMPI PUSH2 0x1F13 JUMPI JUMPDEST POP DUP2 MLOAD SWAP6 DUP3 DUP8 ADD DUP8 DUP2 LT PUSH8 0xFFFFFFFFFFFFFFFF DUP3 GT OR PUSH2 0x5F8 JUMPI DUP4 SWAP10 SWAP6 SWAP4 SWAP8 SWAP7 SWAP5 SWAP3 SWAP8 MSTORE PUSH1 0x1 SWAP4 PUSH1 0x1 DUP8 MSTORE PUSH0 JUMPDEST DUP4 DUP2 LT PUSH2 0x1ED7 JUMPI POP DUP6 SWAP1 DUP11 MLOAD SWAP9 PUSH2 0x1DEF DUP11 PUSH2 0x17C8 JUMP JUMPDEST DUP10 MSTORE AND DUP3 DUP9 ADD MSTORE ISZERO ISZERO DUP9 DUP8 ADD MSTORE PUSH1 0x60 SWAP6 PUSH0 PUSH1 0x60 DUP3 ADD MSTORE PUSH2 0x1E0E DUP7 PUSH2 0x1916 JUMP JUMPDEST MSTORE PUSH2 0x1E18 DUP6 PUSH2 0x1916 JUMP JUMPDEST POP DUP8 MLOAD SWAP8 DUP9 SWAP7 PUSH32 0xCAC88EA900000000000000000000000000000000000000000000000000000000 DUP9 MSTORE PUSH1 0xA4 DUP9 ADD SWAP4 PUSH1 0x4 DUP10 ADD MSTORE PUSH0 PUSH1 0x24 DUP10 ADD MSTORE PUSH1 0xA0 PUSH1 0x44 DUP10 ADD MSTORE DUP7 MLOAD DUP1 SWAP5 MSTORE DUP3 PUSH1 0xC4 DUP10 ADD SWAP8 ADD SWAP6 PUSH0 SWAP3 JUMPDEST DUP6 DUP5 LT PUSH2 0x1E9C JUMPI POP POP POP POP POP POP POP POP SWAP2 DUP2 PUSH0 DUP2 DUP2 SWAP6 ADDRESS PUSH1 0x64 DUP4 ADD MSTORE TIMESTAMP PUSH1 0x84 DUP4 ADD MSTORE SUB SWAP3 GAS CALL SWAP1 DUP2 PUSH2 0x1B17 JUMPI POP PUSH2 0x1B12 JUMPI PUSH0 SWAP1 JUMP JUMPDEST DUP8 MLOAD DUP1 MLOAD DUP4 AND DUP11 MSTORE DUP6 DUP2 ADD MLOAD DUP4 AND DUP7 DUP12 ADD MSTORE DUP2 DUP2 ADD MLOAD ISZERO ISZERO DUP3 DUP12 ADD MSTORE DUP4 ADD MLOAD DUP3 AND DUP4 DUP11 ADD MSTORE DUP12 SWAP10 POP PUSH1 0x80 SWAP1 SWAP9 ADD SWAP8 SWAP7 DUP5 ADD SWAP7 SWAP3 DUP7 ADD SWAP3 PUSH2 0x1E68 JUMP JUMPDEST SWAP3 DUP1 SWAP6 SWAP8 SWAP9 SWAP4 DUP12 SWAP6 SWAP8 SWAP12 MLOAD PUSH2 0x1EEB DUP2 PUSH2 0x17C8 JUMP JUMPDEST PUSH0 DUP2 MSTORE PUSH0 DUP4 DUP3 ADD MSTORE PUSH0 DUP8 DUP3 ADD MSTORE PUSH0 PUSH1 0x60 DUP3 ADD MSTORE DUP3 DUP3 DUP13 ADD ADD MSTORE ADD SWAP10 SWAP6 SWAP4 SWAP10 SWAP8 SWAP7 SWAP5 SWAP3 SWAP8 PUSH2 0x1DD9 JUMP JUMPDEST PUSH2 0x1F29 SWAP1 DUP5 RETURNDATASIZE DUP7 GT PUSH2 0x499 JUMPI PUSH2 0x48A DUP2 DUP4 PUSH2 0x17E4 JUMP JUMPDEST POP PUSH0 PUSH2 0x1DAC JUMP JUMPDEST PUSH2 0x1F44 SWAP3 SWAP4 POP PUSH1 0x20 DUP1 SWAP2 DUP4 ADD ADD SWAP2 ADD PUSH2 0x1832 JUMP JUMPDEST SWAP1 PUSH0 DUP1 PUSH2 0x1D30 JUMP INVALID LOG2 PUSH5 0x6970667358 0x22 SLT KECCAK256 0xDB SWAP11 SUB MUL 0xD3 PUSH8 0xB5C78CFC7B4E50DF 0xD0 CALLER LT 0xD 0xC6 0xD4 DUP7 0xC9 0xD8 0x4F DUP1 INVALID 0xE0 ADD SWAP9 EXTCODECOPY 0xC 0xB6 PUSH5 0x736F6C6343 STOP ADDMOD XOR STOP CALLER "},"methodIdentifiers":{"AERODROME_ROUTER()":"db37bab4","UNISWAP_V3_ROUTER()":"41c64a2f","aavePool()":"a03e4bc3","blacklistToken(address,string)":"4d074e41","blacklisted(address)":"dbac26e9","executeOperation(address,uint256,uint256,address,bytes)":"1b11d0ff","initiateArbitrage(address,uint256,bytes)":"bbe5bd00","minProfitWei()":"2dba7804","owner()":"8da5cb5b","paused()":"5c975abb","removeBlacklist(address)":"eb91e651","setMinProfit(uint256)":"78400f17","setPaused(bool)":"16c38b3c","totalExecutions()":"642f7d5e","totalProfit()":"86001519","weth()":"3fc8cef3","withdrawETH()":"e086e5ec","withdrawProfit(address,uint256)":"d35c9a07"}}}}}