{
  "_format": "hh-sol-artifact-1",
  "contractName": "IronShieldExecutor",
  "sourceName": "contracts/IronShieldExecutor.sol",
  "abi": [
    {
      "inputs": [
        {
          "internalType": "address",
          "name": "_aavePool",
          "type": "address"
        },
        {
          "internalType": "address",
          "name": "_weth",
          "type": "address"
        }
      ],
      "stateMutability": "nonpayable",
      "type": "constructor"
    },
    {
      "inputs": [],
      "name": "ContractPaused",
      "type": "error"
    },
    {
      "inputs": [
        {
          "internalType": "uint256",
          "name": "expected",
          "type": "uint256"
        },
        {
          "internalType": "uint256",
          "name": "actual",
          "type": "uint256"
        }
      ],
      "name": "InsufficientProfit",
      "type": "error"
    },
    {
      "inputs": [],
      "name": "InvalidSwapTarget",
      "type": "error"
    },
    {
      "inputs": [],
      "name": "ReentrancyGuardLocked",
      "type": "error"
    },
    {
      "inputs": [
        {
          "internalType": "address",
          "name": "token",
          "type": "address"
        }
      ],
      "name": "SafeERC20FailedOperation",
      "type": "error"
    },
    {
      "inputs": [
        {
          "internalType": "uint8",
          "name": "stepIndex",
          "type": "uint8"
        }
      ],
      "name": "SwapFailed",
      "type": "error"
    },
    {
      "inputs": [
        {
          "internalType": "address",
          "name": "token",
          "type": "address"
        }
      ],
      "name": "TokenIsBlacklisted",
      "type": "error"
    },
    {
      "inputs": [],
      "name": "TransactionTooOld",
      "type": "error"
    },
    {
      "inputs": [],
      "name": "Unauthorized",
      "type": "error"
    },
    {
      "anonymous": false,
      "inputs": [
        {
          "indexed": true,
          "internalType": "address",
          "name": "token",
          "type": "address"
        },
        {
          "indexed": false,
          "internalType": "uint256",
          "name": "loanAmount",
          "type": "uint256"
        },
        {
          "indexed": false,
          "internalType": "uint256",
          "name": "profit",
          "type": "uint256"
        },
        {
          "indexed": false,
          "internalType": "uint256",
          "name": "gasUsed",
          "type": "uint256"
        },
        {
          "indexed": false,
          "internalType": "uint256",
          "name": "timestamp",
          "type": "uint256"
        }
      ],
      "name": "ArbitrageExecuted",
      "type": "event"
    },
    {
      "anonymous": false,
      "inputs": [
        {
          "indexed": false,
          "internalType": "bool",
          "name": "paused",
          "type": "bool"
        }
      ],
      "name": "EmergencyPause",
      "type": "event"
    },
    {
      "anonymous": false,
      "inputs": [
        {
          "indexed": true,
          "internalType": "address",
          "name": "to",
          "type": "address"
        },
        {
          "indexed": false,
          "internalType": "uint256",
          "name": "amount",
          "type": "uint256"
        }
      ],
      "name": "ProfitWithdrawn",
      "type": "event"
    },
    {
      "anonymous": false,
      "inputs": [
        {
          "indexed": true,
          "internalType": "address",
          "name": "token",
          "type": "address"
        },
        {
          "indexed": false,
          "internalType": "string",
          "name": "reason",
          "type": "string"
        }
      ],
      "name": "TokenBlacklisted",
      "type": "event"
    },
    {
      "inputs": [],
      "name": "AERODROME_ROUTER",
      "outputs": [
        {
          "internalType": "address",
          "name": "",
          "type": "address"
        }
      ],
      "stateMutability": "view",
      "type": "function"
    },
    {
      "inputs": [],
      "name": "BASESWAP_ROUTER",
      "outputs": [
        {
          "internalType": "address",
          "name": "",
          "type": "address"
        }
      ],
      "stateMutability": "view",
      "type": "function"
    },
    {
      "inputs": [],
      "name": "UNISWAP_V3_ROUTER",
      "outputs": [
        {
          "internalType": "address",
          "name": "",
          "type": "address"
        }
      ],
      "stateMutability": "view",
      "type": "function"
    },
    {
      "inputs": [],
      "name": "aavePool",
      "outputs": [
        {
          "internalType": "address",
          "name": "",
          "type": "address"
        }
      ],
      "stateMutability": "view",
      "type": "function"
    },
    {
      "inputs": [
        {
          "internalType": "address",
          "name": "token",
          "type": "address"
        },
        {
          "internalType": "string",
          "name": "reason",
          "type": "string"
        }
      ],
      "name": "blacklistToken",
      "outputs": [],
      "stateMutability": "nonpayable",
      "type": "function"
    },
    {
      "inputs": [
        {
          "internalType": "address",
          "name": "",
          "type": "address"
        }
      ],
      "name": "blacklisted",
      "outputs": [
        {
          "internalType": "bool",
          "name": "",
          "type": "bool"
        }
      ],
      "stateMutability": "view",
      "type": "function"
    },
    {
      "inputs": [
        {
          "internalType": "address",
          "name": "asset",
          "type": "address"
        },
        {
          "internalType": "uint256",
          "name": "amount",
          "type": "uint256"
        },
        {
          "internalType": "uint256",
          "name": "premium",
          "type": "uint256"
        },
        {
          "internalType": "address",
          "name": "initiator",
          "type": "address"
        },
        {
          "internalType": "bytes",
          "name": "params",
          "type": "bytes"
        }
      ],
      "name": "executeOperation",
      "outputs": [
        {
          "internalType": "bool",
          "name": "",
          "type": "bool"
        }
      ],
      "stateMutability": "nonpayable",
      "type": "function"
    },
    {
      "inputs": [
        {
          "internalType": "address",
          "name": "asset",
          "type": "address"
        },
        {
          "internalType": "uint256",
          "name": "amount",
          "type": "uint256"
        },
        {
          "internalType": "uint256",
          "name": "minProfit",
          "type": "uint256"
        },
        {
          "internalType": "uint256",
          "name": "deadline",
          "type": "uint256"
        },
        {
          "internalType": "bytes",
          "name": "swapData",
          "type": "bytes"
        }
      ],
      "name": "initiateArbitrage",
      "outputs": [],
      "stateMutability": "nonpayable",
      "type": "function"
    },
    {
      "inputs": [],
      "name": "owner",
      "outputs": [
        {
          "internalType": "address",
          "name": "",
          "type": "address"
        }
      ],
      "stateMutability": "view",
      "type": "function"
    },
    {
      "inputs": [],
      "name": "paused",
      "outputs": [
        {
          "internalType": "bool",
          "name": "",
          "type": "bool"
        }
      ],
      "stateMutability": "view",
      "type": "function"
    },
    {
      "inputs": [
        {
          "internalType": "address",
          "name": "token",
          "type": "address"
        }
      ],
      "name": "removeBlacklist",
      "outputs": [],
      "stateMutability": "nonpayable",
      "type": "function"
    },
    {
      "inputs": [
        {
          "internalType": "bool",
          "name": "_paused",
          "type": "bool"
        }
      ],
      "name": "setPaused",
      "outputs": [],
      "stateMutability": "nonpayable",
      "type": "function"
    },
    {
      "inputs": [],
      "name": "totalExecutions",
      "outputs": [
        {
          "internalType": "uint256",
          "name": "",
          "type": "uint256"
        }
      ],
      "stateMutability": "view",
      "type": "function"
    },
    {
      "inputs": [],
      "name": "totalProfit",
      "outputs": [
        {
          "internalType": "uint256",
          "name": "",
          "type": "uint256"
        }
      ],
      "stateMutability": "view",
      "type": "function"
    },
    {
      "inputs": [],
      "name": "weth",
      "outputs": [
        {
          "internalType": "address",
          "name": "",
          "type": "address"
        }
      ],
      "stateMutability": "view",
      "type": "function"
    },
    {
      "inputs": [],
      "name": "withdrawETH",
      "outputs": [],
      "stateMutability": "nonpayable",
      "type": "function"
    },
    {
      "inputs": [
        {
          "internalType": "address",
          "name": "token",
          "type": "address"
        },
        {
          "internalType": "uint256",
          "name": "amount",
          "type": "uint256"
        }
      ],
      "name": "withdrawProfit",
      "outputs": [],
      "stateMutability": "nonpayable",
      "type": "function"
    },
    {
      "stateMutability": "payable",
      "type": "receive"
    }
  ],
  "bytecode": "0x60e034620000c857601f6200290b38819003918201601f19168301916001600160401b03831184841017620000cc578084926040948552833981010312620000c8576200005a60206200005283620000e0565b9201620000e0565b903360805260a05260c0526040516128159081620000f6823960805181818161018e015281816105f101528181610704015281816109ca01528181610ab201528181610ca80152610daf015260a0518181816107ad01528181610a3801526110de015260c0518161050c0152f35b5f80fd5b634e487b7160e01b5f52604160045260245ffd5b51906001600160a01b0382168203620000c85756fe6080604052600436101561001a575b3615610018575f80fd5b005b5f3560e01c806316c38b3c146101295780631b11d0ff1461012457806335d8e1941461011f5780633fc8cef31461011a57806341c64a2f146101155780634d074e41146101105780635731c1141461010b5780635c975abb14610106578063642f7d5e1461010157806386001519146100fc5780638da5cb5b146100f7578063a03e4bc3146100f2578063d35c9a07146100ed578063db37bab4146100e8578063dbac26e9146100e3578063e086e5ec146100de5763eb91e6510361000e57610d5b565b610c78565b610c0c565b610bc0565b610a5c565b6109ee565b610980565b610945565b61090a565b6108cb565b61068c565b61057c565b610530565b6104c2565b610476565b610284565b61013c565b8015150361013857565b5f80fd5b346101385760207ffffffffffffffffffffffffffffffffffffffffffffffffffffffffffffffffc360112610138576004356101778161012e565b73ffffffffffffffffffffffffffffffffffffffff7f000000000000000000000000000000000000000000000000000000000000000016330361020e5760207fb80d1ae5628c2af91424c54c87acfd15016be4bebeef0425b328238702f348319115157fffffffffffffffffffffffffffffffffffffffffffffffffffffffffffffff005f541660ff8216175f55604051908152a1005b60046040517f82b42900000000000000000000000000000000000000000000000000000000008152fd5b73ffffffffffffffffffffffffffffffffffffffff81160361013857565b9181601f840112156101385782359167ffffffffffffffff8311610138576020838186019501011161013857565b346101385760a07ffffffffffffffffffffffffffffffffffffffffffffffffffffffffffffffffc360112610138576004356102bf81610238565b604435606435916102cf83610238565b60843567ffffffffffffffff8111610138576102ef903690600401610256565b6040517f70a0823100000000000000000000000000000000000000000000000000000000808252306004830152602096909593909273ffffffffffffffffffffffffffffffffffffffff861692918883602481875afa9485156104405789935f96610445575b509082918761036961037595840184610f4d565b505099602435906110d4565b6040519687523060048801529591829060249082905afa958615610440575f96610403575b50506103af92916103aa91610feb565b610feb565b8083106103c3576040518215158152602090f35b6040517f4e88422a0000000000000000000000000000000000000000000000000000000081526004810191909152602481019290925250604490fd5b0390fd5b6103aa9296506103af9493918161042e92903d10610439575b6104268183610e89565b810190610eca565b95918193945061039a565b503d61041c565b610ed9565b610375939291965061046390853d8711610439576104268183610e89565b95909192610355565b5f91031261013857565b34610138575f7ffffffffffffffffffffffffffffffffffffffffffffffffffffffffffffffffc36011261013857602060405173327df1e6de05895d2ab08513aadd9313fe505d868152f35b34610138575f7ffffffffffffffffffffffffffffffffffffffffffffffffffffffffffffffffc36011261013857602060405173ffffffffffffffffffffffffffffffffffffffff7f0000000000000000000000000000000000000000000000000000000000000000168152f35b34610138575f7ffffffffffffffffffffffffffffffffffffffffffffffffffffffffffffffffc360112610138576020604051732626664c2603336e57b271c5c0b26f421741e4818152f35b346101385760407ffffffffffffffffffffffffffffffffffffffffffffffffffffffffffffffffc360112610138576004356105b781610238565b60243567ffffffffffffffff8111610138576105d7903690600401610256565b919073ffffffffffffffffffffffffffffffffffffffff807f000000000000000000000000000000000000000000000000000000000000000016330361020e577f43db9c2111cb0986cc19d02ef51e29b11bd963598ea73971592b2708bd20bcf9921692835f52600160205260405f2060017fffffffffffffffffffffffffffffffffffffffffffffffffffffffffffffff008254161790556106876040519283926020845260208401916112b6565b0390a2005b346101385760a07ffffffffffffffffffffffffffffffffffffffffffffffffffffffffffffffffc36011261013857600480356106c881610238565b6064359060843567ffffffffffffffff8111610138576106eb9036908501610256565b73ffffffffffffffffffffffffffffffffffffffff90817f00000000000000000000000000000000000000000000000000000000000000001633036108a25760ff5f5416610879577f8e94fed44239eb2314ab7a27a24d9e8a0a8e8b8c5c2d6e9f1a3b5c7d9e0f1a2b94855c61086d576001865d8042116108445761077f6107ab92604051958693604435602086016112f4565b037fffffffffffffffffffffffffffffffffffffffffffffffffffffffffffffffe08101845283610e89565b7f000000000000000000000000000000000000000000000000000000000000000016803b1561013857610815945f8094604051978895869485937f42b0b77c0000000000000000000000000000000000000000000000000000000085526024359130908601611334565b03925af1918215610440575f9261082b575b505d005b8061083861083e92610e38565b8061046c565b5f610827565b866040517fa83116fc000000000000000000000000000000000000000000000000000000008152fd5b866337ed32e85f52601cfd5b856040517fab35696f000000000000000000000000000000000000000000000000000000008152fd5b856040517f82b42900000000000000000000000000000000000000000000000000000000008152fd5b34610138575f7ffffffffffffffffffffffffffffffffffffffffffffffffffffffffffffffffc36011261013857602060ff5f54166040519015158152f35b34610138575f7ffffffffffffffffffffffffffffffffffffffffffffffffffffffffffffffffc360112610138576020600254604051908152f35b34610138575f7ffffffffffffffffffffffffffffffffffffffffffffffffffffffffffffffffc360112610138576020600354604051908152f35b34610138575f7ffffffffffffffffffffffffffffffffffffffffffffffffffffffffffffffffc36011261013857602060405173ffffffffffffffffffffffffffffffffffffffff7f0000000000000000000000000000000000000000000000000000000000000000168152f35b34610138575f7ffffffffffffffffffffffffffffffffffffffffffffffffffffffffffffffffc36011261013857602060405173ffffffffffffffffffffffffffffffffffffffff7f0000000000000000000000000000000000000000000000000000000000000000168152f35b346101385760407ffffffffffffffffffffffffffffffffffffffffffffffffffffffffffffffffc36011261013857600435610a9781610238565b60243573ffffffffffffffffffffffffffffffffffffffff807f0000000000000000000000000000000000000000000000000000000000000000169283330361020e5716604051907fa9059cbb000000000000000000000000000000000000000000000000000000005f52836004528260245260205f60448180855af160015f5114811615610ba1575b8260405215610b5e5760405183815284907f016e128b6bdadd9e9068abd0b18db2fc8b27ed3dbced50e4aa6cc0a6934251ab908060208101610687565b7f5274afe700000000000000000000000000000000000000000000000000000000825273ffffffffffffffffffffffffffffffffffffffff166004820152602490fd5b6001811516610bb757813b15153d151616610b21565b823d5f823e3d90fd5b34610138575f7ffffffffffffffffffffffffffffffffffffffffffffffffffffffffffffffffc36011261013857602060405173cf77a3ba9a5ca399b7c97c74d54e5b1beb874e438152f35b346101385760207ffffffffffffffffffffffffffffffffffffffffffffffffffffffffffffffffc3601126101385773ffffffffffffffffffffffffffffffffffffffff600435610c5c81610238565b165f526001602052602060ff60405f2054166040519015158152f35b34610138575f7ffffffffffffffffffffffffffffffffffffffffffffffffffffffffffffffffc360112610138577f000000000000000000000000000000000000000000000000000000000000000073ffffffffffffffffffffffffffffffffffffffff8116330361020e575f8080809347905af1610cf56113b1565b5015610cfd57005b60646040517f08c379a000000000000000000000000000000000000000000000000000000000815260206004820152601560248201527f455448207769746864726177616c206661696c656400000000000000000000006044820152fd5b346101385760207ffffffffffffffffffffffffffffffffffffffffffffffffffffffffffffffffc36011261013857600435610d9681610238565b73ffffffffffffffffffffffffffffffffffffffff90817f000000000000000000000000000000000000000000000000000000000000000016330361020e57165f52600160205260405f207fffffffffffffffffffffffffffffffffffffffffffffffffffffffffffffff0081541690555f80f35b7f4e487b71000000000000000000000000000000000000000000000000000000005f52604160045260245ffd5b67ffffffffffffffff8111610e4c57604052565b610e0b565b60c0810190811067ffffffffffffffff821117610e4c57604052565b6080810190811067ffffffffffffffff821117610e4c57604052565b90601f7fffffffffffffffffffffffffffffffffffffffffffffffffffffffffffffffe0910116810190811067ffffffffffffffff821117610e4c57604052565b90816020910312610138575190565b6040513d5f823e3d90fd5b6040519060e0820182811067ffffffffffffffff821117610e4c57604052565b60405190610f1182610e6d565b565b67ffffffffffffffff8111610e4c57601f017fffffffffffffffffffffffffffffffffffffffffffffffffffffffffffffffe01660200190565b90916060828403126101385781359260208301359260408101359067ffffffffffffffff8211610138570181601f8201121561013857803590610f8f82610f13565b92610f9d6040519485610e89565b8284526020838301011161013857815f926020809301838601378301015290565b7f4e487b71000000000000000000000000000000000000000000000000000000005f52601160045260245ffd5b91908201809211610ff857565b610fbe565b1561100457565b60646040517f08c379a000000000000000000000000000000000000000000000000000000000815260206004820152601460248201527f43616c6c6572206e6f74204161766520506f6f6c0000000000000000000000006044820152fd5b1561106957565b60646040517f08c379a000000000000000000000000000000000000000000000000000000000815260206004820152601160248201527f496e76616c696420696e69746961746f720000000000000000000000000000006044820152fd5b91908203918211610ff857565b94909293916111377f00000000000000000000000000000000000000000000000000000000000000009361112d73ffffffffffffffffffffffffffffffffffffffff976111248988163314610ffd565b88163014611062565b5a93810190610f4d565b6040517f70a0823100000000000000000000000000000000000000000000000000000000808252306004830152989099169860209896929350919088836024818d5afa928315610440575f9361128f575b50611197906111a893946115fb565b6111a18488610feb565b9089611c59565b60405193845230600485015285846024818a5afa938415610440577f635ba3250f563c26a1442217170c38a03b0a7ce671b624cfcbe68e8e9a69e5c8965f95611270575b50505f93828201811161124d575b50505061121f6112459161121861121360025460010190565b600255565b5a906110c7565b926040519384934292859094939260609260808301968352602083015260408201520152565b0390a2600190565b6112459394509061121f92910303926112698460035401600355565b915f6111fa565b611287929550803d10610439576104268183610e89565b925f806111ec565b6111a89350906112ae611197928b3d8d11610439576104268183610e89565b935090611188565b601f82602094937fffffffffffffffffffffffffffffffffffffffffffffffffffffffffffffffe093818652868601375f8582860101520116010190565b61131094926060928252602082015281604082015201916112b6565b90565b5f5b8381106113245750505f910152565b8181015183820152602001611315565b9493601f7fffffffffffffffffffffffffffffffffffffffffffffffffffffffffffffffe0915f9560c09460809673ffffffffffffffffffffffffffffffffffffffff8092168b521660208a0152604089015260a060608901526113a7815180928160a08c01526020878c019101611313565b0116850101930152565b3d156113db573d906113c282610f13565b916113d06040519384610e89565b82523d5f602084013e565b606090565b67ffffffffffffffff8111610e4c5760051b60200190565b5190610f1182610238565b519062ffffff8216820361013857565b81601f8201121561013857805161142981610f13565b926114376040519485610e89565b81845260208284010111610138576113109160208085019101611313565b602090818184031261013857805167ffffffffffffffff9182821161013857019083601f8301121561013857815161148c816113e0565b94604061149c6040519788610e89565b828752858088019360051b8601019482861161013857868101935b8685106114c957505050505050505090565b84518681116101385782019060c090817fffffffffffffffffffffffffffffffffffffffffffffffffffffffffffffffe0848803011261013857845161150e81610e51565b8a84015160ff811681036101385781526115298685016113f8565b8b82015260609261153b8486016113f8565b87830152608093848601519083015260a093611558858701611403565b908301528401519289841161013857611578888d80979681970101611413565b908201528152019401936114b7565b60ff1660ff8114610ff85760010190565b7f4e487b71000000000000000000000000000000000000000000000000000000005f52603260045260245ffd5b8051156115d25760200190565b611598565b8051600110156115d25760400190565b80518210156115d25760209160051b010190565b9061161181519160208080948301019101611455565b915f5b835160ff80831691821015611a9f5761162d82876115e7565b51908582019261168261167b611657865173ffffffffffffffffffffffffffffffffffffffff1690565b73ffffffffffffffffffffffffffffffffffffffff165f52600160205260405f2090565b5460ff1690565b8015611a72575b6119bd5761192f5760608201518061192a57506116d96116c06116c0855173ffffffffffffffffffffffffffffffffffffffff1690565b73ffffffffffffffffffffffffffffffffffffffff1690565b6040517f70a08231000000000000000000000000000000000000000000000000000000008152306004820152908790829060249082905afa908115610440575f9161190d575b505b905b81156118d95782518692915f9160ff1616806117d257505061175c611789945173ffffffffffffffffffffffffffffffffffffffff1690565b9260a0611780604083015173ffffffffffffffffffffffffffffffffffffffff1690565b9101519361231e565b1561179c5761179790611587565b611614565b6040517fd229d4ee00000000000000000000000000000000000000000000000000000000815260ff919091166004820152602490fd5b9192916001810361183e57505050611801611839935173ffffffffffffffffffffffffffffffffffffffff1690565b916118336080611828604084015173ffffffffffffffffffffffffffffffffffffffff1690565b92015162ffffff1690565b92612086565b611789565b93949193600281036118955750509261188f6040611873611839965173ffffffffffffffffffffffffffffffffffffffff1690565b92015173ffffffffffffffffffffffffffffffffffffffff1690565b90611f45565b600391959450146118a9575b505050611789565b516118d1935060a09073ffffffffffffffffffffffffffffffffffffffff1692015191611d63565b5f80806118a1565b6040517fd229d4ee00000000000000000000000000000000000000000000000000000000815260ff86166004820152602490fd5b6119249150873d8911610439576104268183610e89565b5f61171f565b611721565b6119536116c06116c0855173ffffffffffffffffffffffffffffffffffffffff1690565b6040517f70a08231000000000000000000000000000000000000000000000000000000008152306004820152908790829060249082905afa908115610440575f916119a0575b5090611723565b6119b79150873d8911610439576104268183610e89565b5f611999565b6103ff83856119e661167b611657835173ffffffffffffffffffffffffffffffffffffffff1690565b15611a52575173ffffffffffffffffffffffffffffffffffffffff1690505b6040517ffdc9197900000000000000000000000000000000000000000000000000000000815273ffffffffffffffffffffffffffffffffffffffff90911660048201529081906024820190565b506040015173ffffffffffffffffffffffffffffffffffffffff16611a05565b50611a9a61167b611657604086015173ffffffffffffffffffffffffffffffffffffffff1690565b611689565b505050505050565b906040517f095ea7b3000000000000000000000000000000000000000000000000000000005f52732626664c2603336e57b271c5c0b26f421741e4816004528160245260205f60448180875af19060015f5114821615611bbc575b60405215611b0e575050565b611b17826124b5565b15611b7557611b26908261265a565b15611b2e5750565b60249073ffffffffffffffffffffffffffffffffffffffff604051917f5274afe7000000000000000000000000000000000000000000000000000000008352166004820152fd5b60248273ffffffffffffffffffffffffffffffffffffffff604051917f5274afe7000000000000000000000000000000000000000000000000000000008352166004820152fd5b90833b15153d15161690611b02565b906040517f095ea7b3000000000000000000000000000000000000000000000000000000005f5273cf77a3ba9a5ca399b7c97c74d54e5b1beb874e436004528160245260205f60448180875af19060015f5114821615611c4a575b60405215611c32575050565b611c3b82612537565b15611b7557611b2690826126bb565b90833b15153d15161690611c26565b91604051917f095ea7b3000000000000000000000000000000000000000000000000000000005f5273ffffffffffffffffffffffffffffffffffffffff928382166004528260245260205f60448180895af19060015f5114821615611d54575b60405215611cc8575b50505050565b611cd281856125f7565b15611d215790611ce2918461277d565b15611cee578080611cc2565b60249250604051917f5274afe7000000000000000000000000000000000000000000000000000000008352166004820152fd5b60248484604051917f5274afe7000000000000000000000000000000000000000000000000000000008352166004820152fd5b90853b15153d15161690611cb9565b918051810160408282031261013857602082015191611d8183610238565b60408101519167ffffffffffffffff831161013857611da7926020809201920101611413565b9073ffffffffffffffffffffffffffffffffffffffff809116931692838114611dee57611dd85f9493828695611c59565b82602083519301915af1611dea6113b1565b5090565b60046040517f3e82d32a000000000000000000000000000000000000000000000000000000008152fd5b604051906060820182811067ffffffffffffffff821117610e4c5760405260028252604082602036910137565b60209081818403126101385780519067ffffffffffffffff821161013857019180601f84011215610138578251611e7b816113e0565b93611e896040519586610e89565b818552838086019260051b820101928311610138578301905b828210611eb0575050505090565b81518152908301908301611ea2565b91909493929460a083019083526020905f602085015260a060408501528251809152602060c085019301915f5b828110611f1b57505050509073ffffffffffffffffffffffffffffffffffffffff608092951660608201520152565b835173ffffffffffffffffffffffffffffffffffffffff1685529381019392810192600101611eec565b9073ffffffffffffffffffffffffffffffffffffffff8216611f678482612442565b15612038575b5090611fae5f9392611fa5611f80611e18565b93611f8a856115c5565b9073ffffffffffffffffffffffffffffffffffffffff169052565b611f8a836115d7565b611fe760405194859384937f38ed1739000000000000000000000000000000000000000000000000000000008552309160048601611ebf565b03818373327df1e6de05895d2ab08513aadd9313fe505d865af19081612016575b50612011575f90565b600190565b612031903d805f833e6120298183610e89565b810190611e45565b505f612008565b61204181612597565b1561205557612050848261271c565b611f6d575b602490604051907f5274afe70000000000000000000000000000000000000000000000000000000082526004820152fd5b90916121046121ad946120f86020956120b58573ffffffffffffffffffffffffffffffffffffffff8816611aa7565b6120dc6120c0610ee4565b73ffffffffffffffffffffffffffffffffffffffff9097168752565b73ffffffffffffffffffffffffffffffffffffffff1685870152565b62ffffff166040840152565b306060830152608082019081525f60a0830181815260c08401918252604080517f04e45aaf000000000000000000000000000000000000000000000000000000008152855173ffffffffffffffffffffffffffffffffffffffff90811660048301526020870151811660248301529186015162ffffff16604482015260609095015181166064860152925160848501525160a4840152511660c4820152918290819060e4820190565b03815f732626664c2603336e57b271c5c0b26f421741e4815af190816121d65750612011575f90565b6120319060203d602011610439576104268183610e89565b9081602091031261013857516113108161012e565b604090604051916040830183811067ffffffffffffffff821117610e4c576040526001835282915f5b6020808210156122635783516020929161224582610e6d565b5f82525f818301525f868301525f606083015282880101520161222c565b505091925050565b91909493929460a083019083526020905f602085015260409160a060408601528351809252602060c086019401925f905b8382106122cc5750505073ffffffffffffffffffffffffffffffffffffffff909616606084015250935060800152565b8451805173ffffffffffffffffffffffffffffffffffffffff9081168852818501518116888601528183015115158884015260609182015116908701526080909501949382019360019091019061229c565b6123ac5f94958051908115159182612428575b50506123538573ffffffffffffffffffffffffffffffffffffffff8516611bcb565b6123a361235e612203565b9461238661236a610f04565b73ffffffffffffffffffffffffffffffffffffffff9096168652565b73ffffffffffffffffffffffffffffffffffffffff166020850152565b15156040830152565b8360608201526123bb826115c5565b526123c5816115c5565b506123ff60405194859384937fcac88ea900000000000000000000000000000000000000000000000000000000855230916004860161226b565b03818373cf77a3ba9a5ca399b7c97c74d54e5b1beb874e435af190816120165750612011575f90565b61243b92506020809183010191016121ee565b5f80612331565b9190604051907f095ea7b3000000000000000000000000000000000000000000000000000000005f5273327df1e6de05895d2ab08513aadd9313fe505d8660045260245260205f60448180875af19260015f51148416156124a4575b50604052565b9290923b15153d151616915f61249e565b906040517f095ea7b3000000000000000000000000000000000000000000000000000000005f52732626664c2603336e57b271c5c0b26f421741e4816004525f60245260205f60448180875af19260015f51148416156125155750604052565b6001849294151661252e573b15153d151616915f61249e565b833d5f823e3d90fd5b906040517f095ea7b3000000000000000000000000000000000000000000000000000000005f5273cf77a3ba9a5ca399b7c97c74d54e5b1beb874e436004525f60245260205f60448180875af19260015f51148416156125155750604052565b906040517f095ea7b3000000000000000000000000000000000000000000000000000000005f5273327df1e6de05895d2ab08513aadd9313fe505d866004525f60245260205f60448180875af19260015f51148416156125155750604052565b919073ffffffffffffffffffffffffffffffffffffffff604051917f095ea7b3000000000000000000000000000000000000000000000000000000005f52166004525f60245260205f60448180875af19260015f51148416156125155750604052565b9190604051907f095ea7b3000000000000000000000000000000000000000000000000000000005f52732626664c2603336e57b271c5c0b26f421741e48160045260245260205f60448180875af19260015f51148416156125155750604052565b9190604051907f095ea7b3000000000000000000000000000000000000000000000000000000005f5273cf77a3ba9a5ca399b7c97c74d54e5b1beb874e4360045260245260205f60448180875af19260015f51148416156125155750604052565b9190604051907f095ea7b3000000000000000000000000000000000000000000000000000000005f5273327df1e6de05895d2ab08513aadd9313fe505d8660045260245260205f60448180875af19260015f51148416156125155750604052565b929173ffffffffffffffffffffffffffffffffffffffff604051927f095ea7b3000000000000000000000000000000000000000000000000000000005f521660045260245260205f60448180875af19260015f5114841615612515575060405256fea26469706673582212206543e7fa8b34a71dc7851a281f8d94d2de5fb807f7c983acb4cadceb63726efb64736f6c63430008180033",
  "linkReferences": {},
  "deployedLinkReferences": {}
}